:020000040800F2
:1000000000800120C90B0008490A00084F0A0008B7
:10001000550A00085B0A0008610A00080000000099
:10002000000000000000000000000000670A000857
:10003000750A000800000000830A0008910A000801
:10004000190C0008190C0008190C0008190C0008FC
:10005000190C0008190C0008190C0008190C0008EC
:10006000190C00089D0A0008190C0008190C00085A
:10007000190C0008190C0008190C0008190C0008CC
:10008000190C0008190C0008190C000800000000E9
:10009000000000000000000000000000190C000833
:1000A000190C0008190C0008190C0008190C00089C
:1000B000190C0008190C0008190C0008190C00088C
:1000C000190C0008190C0008190C0008190C00087C
:1000D000190C0008190C0008190C00080000000099
:1000E000190C0008190C0008190C00080000000089
:1000F000000000000000000000000000190C0008D3
:1001000000000000190C0008190C0008190C000868
:1001100000000000000000000000000000000000DF
:10012000190C0008190C0008190C0008190C00081B
:10013000190C000800000000000000000000000092
:10014000000000000000000000000000190C000882
:10015000190C0008190C0008190C0008190C0008EB
:10016000190C0008190C0008000000000000000035
:10017000000000000000000000000000000000007F
:1001800000000000190C0008000000000000000042
:04019000190C00083E
:1001A00010B5054C237833B9044B13B10448AFF3B1
:1001B00000800123237010BD7000002000000000AB
:1001C000A824000808B5034B1BB103490348AFF34B
:1001D000008008BD0000000074000020A824000872
:1001E00001F0FF01102A2BDB10F0070F08D010F8E8
:1001F000013B013A8B422DD010F0070F42B3F6D1EC
:10020000F0B441EA012141EA014122F007047FF004
:1002100000070023F0E80256083C85EA010586EA5B
:10022000010685FA47F5A3FA87F586FA47F6A5FA97
:1002300087F68EB9EED1F0BC01F0FF0102F00702A3
:1002400032B110F8013B013A83EA010313B1F8D14E
:100250000020704701387047002D06BF354603382F
:10026000073815F0010F07D1013015F4807F02BF68
:10027000013015F4C03F0130F0BC0138704700BFB9
:1002800053B94AB9002908BF00281CBF4FF0FF31FD
:100290004FF0FF3000F074B9ADF1080C6DE904CEF9
:1002A00000F006F8DDF804E0DDE9022304B0704751
:1002B0002DE9F047089D04468E46002B4DD18A4219
:1002C000944669D9B2FA82F252B101FA02F3C2F14C
:1002D000200120FA01F10CFA02FC41EA030E9440DD
:1002E0004FEA1C48210CBEFBF8F61FFA8CF708FBFE
:1002F00016E341EA034306FB07F199420AD91CEBD6
:10030000030306F1FF3080F01F81994240F21C8107
:10031000023E63445B1AA4B2B3FBF8F008FB10334F
:1003200044EA034400FB07F7A7420AD91CEB040484
:1003300000F1FF3380F00A81A74240F20781644454
:10034000023840EA0640E41B00261DB1D4400023D9
:10035000C5E900433146BDE8F0878B4209D9002D3D
:1003600000F0EF800026C5E9000130463146BDE8C7
:10037000F087B3FA83F6002E4AD18B4202D3824231
:1003800000F2F980841A61EB030301209E46002DE0
:10039000E0D0C5E9004EDDE702B9FFDEB2FA82F235
:1003A000002A40F09280A1EB0C014FEA1C471FFA93
:1003B0008CFE0126200CB1FBF7F307FB131140EA7A
:1003C00001410EFB03F0884208D91CEB010103F147
:1003D000FF3802D2884200F2CB804346091AA4B209
:1003E000B1FBF7F007FB101144EA01440EFB00FEDD
:1003F000A64508D91CEB040400F1FF3102D2A64542
:1004000000F2BB800846A4EB0E0440EA03409CE7E0
:10041000C6F12007B34022FA07FC4CEA030C20FA8D
:1004200007F401FA06F31C43F9404FEA1C4900FAAD
:1004300006F3B1FBF9F8200C1FFA8CFE09FB18112A
:1004400040EA014108FB0EF0884202FA06F20BD99D
:100450001CEB010108F1FF3A80F08880884240F2ED
:100460008580A8F102086144091AA4B2B1FBF9F031
:1004700009FB101144EA014100FB0EFE8E4508D92C
:100480001CEB010100F1FF346CD28E456AD90238B1
:10049000614440EA0840A0FB0294A1EB0E01A14296
:1004A000C846A64656D353D05DB1B3EB080261EB04
:1004B0000E0101FA07F722FA06F3F1401F43C5E9DE
:1004C000007100263146BDE8F087C2F12003D84014
:1004D0000CFA02FC21FA03F3914001434FEA1C4756
:1004E0001FFA8CFEB3FBF7F007FB10360B0C43EA48
:1004F000064300FB0EF69E4204FA02F408D91CEBF8
:10050000030300F1FF382FD29E422DD902386344F5
:100510009B1B89B2B3FBF7F607FB163341EA034195
:1005200006FB0EF38B4208D91CEB010106F1FF38E4
:1005300016D28B4214D9023E6144C91A46EA0046DB
:1005400038E72E46284605E70646E3E61846F8E66D
:100550004B45A9D2B9EB020864EB0C0E0138A3E7B6
:100560004646EAE7204694E74046D1E7D0467BE797
:10057000023B614432E7304609E76444023842E70F
:10058000704700BF80B582B000AF0346FB71002208
:1005900001210C4800F086FE01220121094800F0EB
:1005A00081FEFB79184600F00FF8022000F0A8FB4E
:1005B00000220121034800F075FE00BF0837BD4648
:1005C00080BD00BF0004024080B582B000AF03468A
:1005D000FB71FB7903F00103002B05D001221021F0
:1005E0001E4800F05FFE04E0002210211B4800F0CE
:1005F00059FEFB7903F00203002B05D001222021D4
:10060000164800F04FFE04E000222021134800F0BD
:1006100049FEFB7903F00403002B05D001224021A1
:100620000E4800F03FFE04E0002240210B4800F09D
:1006300039FEFB7903F00803002B05D0012280214D
:10064000064800F02FFE04E000228021034800F05D
:1006500029FE00BF0837BD4680BD00BF0000024034
:1006600080B500AF0320FFF78DFF0320FFF78AFF5F
:100670000320FFF787FF0220FFF784FF0220FFF728
:1006800081FF0820FFF77EFF0020FFF77BFF082097
:10069000FFF778FF0020FFF775FF0120FFF772FFDB
:1006A0000020FFF76FFF0D20FFF76CFF00BF80BD3C
:1006B00080B584B000AF03460A46FB711346BB7198
:1006C000002202212A4800F0EDFDBB79032B4BD814
:1006D00001A252F823F000BFE9060008090700084C
:1006E0002907000849070008FB79803BFB73FB7969
:1006F00080331B11BB73BB7B1846FFF743FFFB7BAB
:100700001846FFF73FFF2FE0FB79403BFB73FB7977
:10071000C0331B11BB73BB7B1846FFF733FFFB7B5A
:100720001846FFF72FFF1FE0FB796C3BFB73FB794B
:1007300094331B11BB73BB7B1846FFF723FFFB7B76
:100740001846FFF71FFF0FE0FB792C3BFB73FB798B
:10075000D4331B11BB73BB7B1846FFF713FFFB7B26
:100760001846FFF70FFF00BF00BF1037BD4680BD22
:100770000004024080B584B000AF0346FB71FB79F2
:100780001B09FB73FB79BB7301220221074800F0B0
:1007900089FDFB7B1846FFF7F5FEBB7B1846FFF78C
:1007A000F1FE00BF1037BD4680BD00BF000402400F
:1007B00080B584B000AF78607B68FB6006E0FB68C2
:1007C0005A1CFA601B781846FFF7D4FFFB681B78A9
:1007D000002BF4D100BF00BF1037BD4680BD000024
:1007E00080B500AF00F01AFA00F028F800F086F8A3
:1007F000FFF736FF00210020FFF75AFF0B48FFF7F5
:10080000D7FF0B4B1B889BB21A460A490A4801F0D6
:10081000DDF901210020FFF74BFF0748FFF7C8FF74
:100820004FF4FA7000F06CFAEBE700BFC024000848
:10083000A0000020CC2400088C00002080B594B0DB
:1008400000AF07F1200330220021184601F0B6F96D
:1008500007F10C0300221A605A609A60DA601A618C
:100860000023BB60234B1B6C224A43F0805313646C
:10087000204B1B6C03F08053BB60BB6800237B6084
:100880001D4B1B6823F440431B4A43F40043136091
:10089000194B1B6803F440437B607B6802233B6277
:1008A0000123FB6210233B630023BB6307F120039A
:1008B000184600F035FD0346002B01D000F096F8F5
:1008C0000F23FB6000233B6100237B610023BB619E
:1008D0000023FB6107F10C030021184600F098FF8C
:1008E0000346002B01D000F081F800BF5037BD4611
:1008F00080BD00BF003802400070004080B588B065
:1009000000AF07F10C0300221A605A609A60DA60A7
:100910001A610023BB60324B1B6B314A43F0010369
:1009200013632F4B1B6B03F00103BB60BB680023F9
:100930007B602B4B1B6B2A4A43F002031363284B4B
:100940001B6B03F002037B607B680022F0212548CB
:1009500000F0A8FC00220321234800F0A3FCF023B0
:10096000FB6001233B6100237B610023BB6107F136
:100970000C0319461B4800F0F9FA0323FB6001231E
:100980003B6100237B610023BB6107F10C03194627
:10099000154800F0EBFA0823FB604FF444133B6169
:1009A00000237B6107F10C0319460F4800F0DEFAC3
:1009B0001023FB6000233B6100237B6107F10C03E4
:1009C0001946094800F0D2FA00220021092000F05F
:1009D00096FA092000F0AFFA00BF2037BD4680BD6F
:1009E00000380240000002400004024080B400AF22
:1009F00072B600BFFEE7000080B483B000AF0023F2
:100A00007B60104B5B6C0F4A43F4804353640D4B87
:100A10005B6C03F480437B607B6800233B60094B85
:100A20001B6C084A43F080531364064B1B6C03F0A5
:100A300080533B603B6800BF0C37BD465DF8047BCC
:100A4000704700BF0038024080B400AFFEE780B4BA
:100A500000AFFEE780B400AFFEE780B400AFFEE772
:100A600080B400AFFEE780B400AF00BFBD465DF8C4
:100A7000047B704780B400AF00BFBD465DF8047BC7
:100A8000704780B400AF00BFBD465DF8047B70477F
:100A900080B500AF00F014F900BF80BD80B500AF95
:100AA000204B5B6903F00803002B35D008211E485A
:100AB00000F0E0FB03469AB21C4B1A801B4B1B88CC
:100AC0009AB21B4B1B889BB29A4225D01021164824
:100AD00000F0D0FB0346002B0DD0164B1B889BB2B9
:100AE000B3F57A7F13D2134B1B889BB20A339AB2A9
:100AF000104B1A800BE00F4B1B889BB2002B06D0CB
:100B00000C4B1B889BB20A3B9AB20A4B1A80074BCC
:100B10001B889AB2064B1A80082000F0DDFB00BF4C
:100B200080BD00BF003C0140000402409C0000204A
:100B30009E000020A000002080B586B000AF786045
:100B4000144A154BD31A7B617B693B61134B1B68BD
:100B5000002B02D1114B124A1A60104B1A687B68A5
:100B600013443A699A4207D200F0FEFF03460C2272
:100B70001A604FF0FF3309E0084B1B68FB60074B1E
:100B80001A687B681344054A1360FB6818461837D7
:100B9000BD4680BD0080012000040000A4000020AC
:100BA000C000002080B400AF064BD3F88830054A5F
:100BB00043F47003C2F8883000BFBD465DF8047B83
:100BC000704700BF00ED00E0DFF834D00D480E495B
:100BD0000E4A002302E0D458C4500433C4188C4297
:100BE000F9D30B4A0B4C002301E013600432A242FC
:100BF000FBD3FFF7D7FF00F0BDFFFFF7F1FD704714
:100C0000008001200000002070000020282500083E
:100C100070000020BC000020FEE7000080B500AF9F
:100C20000E4B1B680D4A43F4007313600B4B1B689B
:100C30000A4A43F480631360084B1B68074A43F475
:100C400080731360032000F04FF90F2000F008F8C4
:100C5000FFF7D2FE0023184680BD00BF003C0240D3
:100C600080B582B000AF7860124B1A68124B1B78C7
:100C700019464FF47A73B3FBF1F3B2FBF3F3184662
:100C800000F067F90346002B01D001230EE07B68DA
:100C90000F2B0AD8002279684FF0FF3000F02FF9AF
:100CA000064A7B681360002300E0012318460837DA
:100CB000BD4680BD00000020080000200400002088
:100CC00080B400AF064B1B781A46064B1B681344D2
:100CD000044A136000BFBD465DF8047B704700BF47
:100CE00008000020A800002080B400AF034B1B6860
:100CF0001846BD465DF8047B704700BFA800002081
:100D000080B584B000AF7860FFF7EEFFB8607B6815
:100D1000FB60FB68B3F1FF3F05D00A4B1B781A4616
:100D2000FB681344FB6000BFFFF7DEFF0246BB68B1
:100D3000D31AFA689A42F7D800BF00BF1037BD46F1
:100D400080BD00BF0800002080B485B000AF78608F
:100D50007B6803F00703FB600C4BDB68BB60BA6881
:100D60004FF6FF031340BB60FB681A02BB681343D6
:100D700043F0BF6343F40033BB60044ABB68D360F5
:100D800000BF1437BD465DF8047B704700ED00E0FE
:100D900080B400AF044BDB681B0A03F0070318465E
:100DA000BD465DF8047B704700ED00E080B483B081
:100DB00000AF0346FB7197F90730002B0BDBFB7983
:100DC00003F01F02074997F907305B09012000FA79
:100DD00002F241F8232000BF0C37BD465DF8047BCA
:100DE000704700BF00E100E080B483B000AF03466D
:100DF0003960FB7197F90730002B0ADB3B68DAB2E8
:100E00000C4997F907301201D2B20B4483F8002342
:100E10000AE03B68DAB20849FB7903F00F03043BB0
:100E20001201D2B20B441A7600BF0C37BD465DF8F2
:100E3000047B704700E100E000ED00E080B489B081
:100E400000AFF860B9607A60FB6803F00703FB61EC
:100E5000FB69C3F10703042B28BF0423BB61FB69B3
:100E60000433062B02D9FB69033B00E000237B61BE
:100E70004FF0FF32BB6902FA03F3DA43BB681A4052
:100E80007B699A404FF0FF317B6901FA03F3D94344
:100E90007B680B40134318462437BD465DF8047B3E
:100EA0007047000080B582B000AF78607B68013B7E
:100EB000B3F1807F01D301230FE00A4A7B68013B35
:100EC00053600F214FF0FF30FFF78EFF054B0022DC
:100ED0009A60044B07221A60002318460837BD4663
:100EE00080BD00BF10E000E080B582B000AF786048
:100EF0007868FFF729FF00BF0837BD4680BD80B581
:100F000086B000AF0346B9607A60FB7300237B6153
:100F1000FFF73EFF78617A68B9687869FFF78EFF5E
:100F2000024697F90F3011461846FFF75DFF00BFE4
:100F30001837BD4680BD80B582B000AF0346FB7157
:100F400097F907301846FFF731FF00BF0837BD4655
:100F500080BD80B582B000AF78607868FFF7A2FFEF
:100F6000034618460837BD4680BD000080B489B0EE
:100F700000AF7860396000237B6100233B61002370
:100F8000BB610023FB6159E10122FB6902FA03F313
:100F90007B613B681B687A6913403B613A697B69F6
:100FA0009A4240F048813B685B6803F00303012BE1
:100FB00005D03B685B6803F00303022B30D17B68EC
:100FC0009B68BB61FB695B00032202FA03F3DB430E
:100FD000BA691340BB613B68DA68FB695B0002FADF
:100FE00003F3BA691343BB617B68BA699A607B6893
:100FF0005B68BB610122FB6902FA03F3DB43BA6958
:101000001340BB613B685B681B0903F00102FB698D
:1010100002FA03F3BA691343BB617B68BA695A6089
:101020003B685B6803F00303032B17D07B68DB6826
:10103000BB61FB695B00032202FA03F3DB43BA697D
:101040001340BB613B689A68FB695B0002FA03F3DB
:10105000BA691343BB617B68BA69DA603B685B6855
:1010600003F00303022B23D1FB69DA087B68083203
:1010700053F82230BB61FB6903F007039B000F228A
:1010800002FA03F3DB43BA691340BB613B681A6998
:10109000FB6903F007039B0002FA03F3BA691343E9
:1010A000BB61FB69DA087B680832B96943F8221032
:1010B0007B681B68BB61FB695B00032202FA03F3D8
:1010C000DB43BA691340BB613B685B6803F0030212
:1010D000FB695B0002FA03F3BA691343BB617B68E7
:1010E000BA691A603B685B6803F44033002B00F078
:1010F000A2800023FB60574B5B6C564A43F480434D
:101100005364544B5B6C03F48043FB60FB68524AAE
:10111000FB699B08023352F82330BB61FB6903F083
:1011200003039B000F2202FA03F3DB43BA69134067
:10113000BB617B68494A934219D07B68484A934215
:1011400013D07B68474A93420DD07B68464A93424E
:1011500007D07B68454A934201D1042308E0072366
:1011600006E0032304E0022302E0012300E0002361
:10117000FA6902F0030292009340BA691343BB611B
:101180003549FB699B080233BA6941F82320384B83
:101190009B68BB613B69DB43BA691340BB613B6839
:1011A0005B6803F48013002B03D0BA693B691343D7
:1011B000BB612F4ABB6993602D4BDB68BB613B6908
:1011C000DB43BA691340BB613B685B6803F40013FF
:1011D000002B03D0BA693B691343BB61244ABB6946
:1011E000D360234B5B68BB613B69DB43BA69134047
:1011F000BB613B685B6803F40033002B03D0BA6922
:101200003B691343BB611A4ABB695360184B1B68A7
:10121000BB613B69DB43BA691340BB613B685B68F8
:1012200003F48033002B03D0BA693B691343BB61DD
:101230000F4ABB691360FB690133FB61FB690F2B2C
:101240007FF6A2AE00BF00BF2437BD465DF8047B29
:10125000704700BF003802400038014000000240E3
:101260000004024000080240000C0240001002404E
:10127000003C014080B485B000AF78600B467B80B5
:101280007B681A697B881340002B02D00123FB7313
:1012900001E00023FB73FB7B18461437BD465DF865
:1012A000047B704780B483B000AF78600B467B80CE
:1012B00013467B707B78002B03D07A887B689A6119
:1012C00003E07B881A047B689A6100BF0C37BD4637
:1012D0005DF8047B7047000080B582B000AF034624
:1012E000FB80084B5A69FB881340002B06D0054A47
:1012F000FB885361FB88184600F006F800BF0837EA
:10130000BD4680BD003C014080B483B000AF0346C1
:10131000FB8000BF0C37BD465DF8047B70470000C2
:1013200080B586B000AF78607B68002B01D10123C7
:1013300067E27B681B6803F00103002B75D0884BC4
:101340009B6803F00C03042B0CD0854B9B6803F0C7
:101350000C03082B12D1824B5B6803F48003B3F5B6
:10136000800F0BD17E4B1B6803F40033002B5BD046
:101370007B685B68002B57D1012342E27B685B6886
:10138000B3F5803F06D1764B1B68754A43F4803332
:1013900013601DE07B685B68B3F5A02F0CD1704B28
:1013A0001B686F4A43F4802313606D4B1B686C4AC3
:1013B00043F4803313600BE0694B1B68684A23F4E5
:1013C00080331360664B1B68654A23F480231360E7
:1013D0007B685B68002B13D0FFF786FC386108E060
:1013E000FFF782FC02463B69D31A642B01D9032321
:1013F00007E25B4B1B6803F40033002BF0D014E0D2
:10140000FFF772FC386108E0FFF76EFC02463B69AB
:10141000D31A642B01D90323F3E1514B1B6803F466
:101420000033002BF0D100E000BF7B681B6803F0A5
:101430000203002B63D04A4B9B6803F00C03002B84
:101440000BD0474B9B6803F00C03082B1CD1444B7B
:101450005B6803F48003002B16D1414B1B6803F03B
:101460000203002B05D07B68DB68012B01D0012330
:10147000C7E13B4B1B6823F0F8027B681B69DB006C
:10148000374913430B603AE07B68DB68002B20D0C0
:10149000344B01221A60FFF727FC386108E0FFF7A0
:1014A00023FC02463B69D31A022B01D90323A8E18E
:1014B0002B4B1B6803F00203002BF0D0284B1B685A
:1014C00023F0F8027B681B69DB00254913430B609E
:1014D00015E0244B00221A60FFF706FC386108E093
:1014E000FFF702FC02463B69D31A022B01D9032302
:1014F00087E11B4B1B6803F00203002BF0D17B68D4
:101500001B6803F00803002B36D07B685B69002B57
:1015100016D0154B01221A60FFF7E6FB386108E090
:10152000FFF7E2FB02463B69D31A022B01D90323E2
:1015300067E10B4B5B6F03F00203002BF0D01BE065
:10154000094B00221A60FFF7CFFB38610EE0FFF76E
:10155000CBFB02463B69D31A022B07D9032350E188
:101560000038024000004742800E4742884B5B6FC4
:1015700003F00203002BEAD17B681B6803F004032D
:10158000002B00F097800023FB75814B1B6C03F050
:101590008053002B0FD10023BB607D4B1B6C7C4A1A
:1015A00043F0805313647A4B1B6C03F08053BB6091
:1015B000BB680123FB75774B1B6803F48073002B1A
:1015C00018D1744B1B68734A43F480731360FFF7A0
:1015D0008BFB386108E0FFF787FB02463B69D31AB3
:1015E000022B01D903230CE16A4B1B6803F48073BF
:1015F000002BF0D07B689B68012B06D1644B1B6FDE
:10160000634A43F0010313671CE07B689B68052B6A
:101610000CD15F4B1B6F5E4A43F0040313675C4BB6
:101620001B6F5B4A43F0010313670BE0584B1B6FC2
:10163000574A23F001031367554B1B6F544A23F09D
:10164000040313677B689B68002B15D0FFF74CFBE6
:1016500038610AE0FFF748FB02463B69D31A41F2C2
:101660008832934201D90323CBE0494B1B6F03F02F
:101670000203002BEED014E0FFF736FB38610AE0DE
:10168000FFF732FB02463B69D31A41F2883293429C
:1016900001D90323B5E03E4B1B6F03F00203002B7F
:1016A000EED1FB7D012B05D1394B1B6C384A23F061
:1016B000805313647B689B69002B00F0A180344B3E
:1016C0009B6803F00C03082B5CD07B689B69022BA2
:1016D00041D1314B00221A60FFF706FB386108E068
:1016E000FFF702FB02463B69D31A022B01D9032301
:1016F00087E0274B1B6803F00073002BF0D17B6859
:10170000DA697B681B6A1A437B685B6A9B011A4330
:101710007B689B6A5B08013B1B041A437B68DB6A9E
:101720001B061B4913434B601B4B01221A60FFF73A
:10173000DBFA386108E0FFF7D7FA02463B69D31AB3
:10174000022B01D903235CE0114B1B6803F00073EB
:10175000002BF0D054E0104B00221A60FFF7C4FABF
:10176000386108E0FFF7C0FA02463B69D31A022B42
:1017700001D9032345E0064B1B6803F00073002BDF
:10178000F0D13DE07B689B69012B07D1012338E054
:101790000038024000700040600047421B4B5B680D
:1017A000FB607B689B69012B28D0FB6803F48002F7
:1017B0007B68DB699A4221D1FB6803F03F027B68BA
:1017C0001B6A9A421AD1FA6847F6C07313407A68C6
:1017D000526A9201934211D1FB6803F440327B6854
:1017E0009B6A5B08013B1B049A4207D1FB6803F02C
:1017F00070627B68DB6A1B069A4201D0012300E01D
:10180000002318461837BD4680BD00BF003802408F
:1018100080B584B000AF786039607B68002B01D15F
:101820000123CCE0684B1B6803F007033A689A4237
:101830000CD9654B3A68D2B21A70634B1B6803F03F
:1018400007033A689A4201D00123B8E07B681B681D
:1018500003F00203002B20D07B681B6803F0040315
:10186000002B05D0594B9B68584A43F4E0539360D2
:101870007B681B6803F00803002B05D0534B9B6863
:10188000524A43F460439360504B9B6823F0F0024C
:101890007B689B684D4913438B607B681B6803F032
:1018A0000103002B44D07B685B68012B07D1474BB9
:1018B0001B6803F40033002B19D101237FE07B6800
:1018C0005B68022B03D07B685B68032B07D13F4B1F
:1018D0001B6803F00073002B09D101236FE03B4B21
:1018E0001B6803F00203002B01D1012367E0374B93
:1018F0009B6823F003027B685B68344913438B6069
:10190000FFF7F2F9F8600AE0FFF7EEF90246FB682C
:10191000D31A41F28832934201D903234FE02B4B73
:101920009B6803F00C027B685B689B009A42EBD1DA
:10193000254B1B6803F007033A689A420CD2224BEE
:101940003A68D2B21A70204B1B6803F007033A685A
:101950009A4201D0012332E07B681B6803F0040344
:10196000002B08D0194B9B6823F4E0527B68DB689E
:10197000164913438B607B681B6803F00803002B38
:1019800009D0124B9B6823F460427B681B69DB0023
:101990000E4913438B6000F021F802460B4B9B6805
:1019A0001B0903F00F030A49CB5C22FA03F3094A2F
:1019B0001360094B1B681846FFF752F900231846BD
:1019C0001037BD4680BD00BF003C024000380240D9
:1019D000D424000800000020040000202DE9B04FAE
:1019E00090B000AF00237B630023FB6300233B63C5
:1019F0000023BB63594B9B6803F00C03082B0DD0ED
:101A0000082B00F2A180002B02D0042B03D09BE016
:101A1000534BBB639BE0534BBB6398E04F4B5B68FE
:101A200003F03F037B634D4B5B6803F48003002BA3
:101A300028D04A4B5B689B0900223B627A623B6A72
:101A4000C3F308000021474B03FB01F2002300FB16
:101A500003F31344434AA0FB0212FA620A46BA6235
:101A6000FA6A1344FB627B6B0022BB61FA61D7E91F
:101A70000623D7E90A01FEF703FC02460B4613468C
:101A8000FB6353E0354B5B689B0900223B617A6145
:101A90003B69C3F3080A4FF0000B52465B464FF018
:101AA00000004FF00001590141EAD26150010246A5
:101AB0000B46B2EB0A0863EB0B094FF000024FF044
:101AC00000034FEA891343EA98634FEA8812B2EBA6
:101AD000080463EB09054FF000024FF00003EB0030
:101AE00043EA5473E20014461D4614EB0A033B60BC
:101AF00045EB0B037B604FF000024FF00003D7E98A
:101B0000004529468B02214643EA915321468A0229
:101B1000104619467B6B0022BB60FA60D7E90223AE
:101B2000FEF7AEFB02460B461346FB630B4B5B68AE
:101B30001B0C03F0030301335B003B63FA6B3B6B4D
:101B4000B2FBF3F3BB6302E0054BBB6300BFBB6BAF
:101B500018464037BD46BDE8B08F00BF0038024090
:101B60000024F40040787D01014B1868704700BFE5
:101B70000C00002070B50D4D0D4C641BA410002608
:101B8000A64209D10B4D0C4C00F08EFC641BA41036
:101B90000026A64205D170BD55F8043B9847013692
:101BA000EEE755F8043B98470136F2E72025000898
:101BB00020250008202500082425000802440346AB
:101BC000934200D1704703F8011BF9E70EB400B54A
:101BD0009CB01DAB029006906FF000410948079140
:101BE0000491094953F8042B05910068019302A957
:101BF00000F068F8029B00221A701CB05DF804EB3C
:101C000003B070470C0000200802FFFF2DE9F047E9
:101C10008E689E4282460C4690461F4638D88A8976
:101C200012F4906F32D025680969A5EB0109656946
:101C300005EB450505EBD57501334B446D109D4211
:101C400038BF1D46530531D5294600F063FB0646D3
:101C500050B90C23CAF80030A38943F04003A38194
:101C60004FF0FF30BDE8F08721694A4600F0BEFA28
:101C7000A38923F4906343F08003A3812661656107
:101C80004E44A5EB09052660A5603E46BE4200D93C
:101C90003E4620683246414600F0B6FAA3689B1BD8
:101CA000A3602368334423600020DBE72A4600F06A
:101CB000A5FB06460028E1D12169504600F0BEFA96
:101CC000C7E700002DE9F04F98468B891B069DB0B1
:101CD00007460D4614460ED50B6963B9402100F046
:101CE00019FB2860286120B90C233B604FF0FF30BE
:101CF000D1E040236B610023099320238DF8293024
:101D0000CDF80C803023DFF8A8818DF82A304FF011
:101D1000010923469A4613F8012B0AB1252AF9D165
:101D2000BAEB040B0BD05B46224629463846FFF738
:101D30006DFF013000F0AA80099A5A4409929AF87E
:101D40000030002B00F0A28000234FF0FF32CDE9DD
:101D500005230AF1010A049307938DF853301A936F
:101D60005446052214F8011B5148FEF739FA049A2B
:101D7000D8B9D00644BF20238DF85330110744BF93
:101D80002B238DF853309AF800302A2B15D0079A60
:101D9000544600204FF00A0C214611F8013B303B1D
:101DA000092B4ED9B0B1079214E0A0EB080309FA51
:101DB00003F313430493A246D2E7039B191D1B6848
:101DC0000391002BBBBF5B4242F0020207930793D3
:101DD000B8BF049223782E2B0CD163782A2B35D1EF
:101DE000039B1A1D1B680392002BB8BF4FF0FF33F3
:101DF00002340593DFF8C8A0217803225046FEF78D
:101E0000EFF940B14023A0EB0A0003FA00F0049B75
:101E100003430134049314F8011B26488DF828105D
:101E20000622FEF7DDF9002838D0234B1BBB039BAD
:101E3000073323F0070308330393099B33440993C3
:101E400067E70CFB02320C460120A5E700230134B2
:101E5000059319464FF00A0C204610F8012B303A32
:101E6000092A03D9002BC5D00591C3E70CFB01213A
:101E700004460123F0E703AB00932A460F4B04A965
:101E80003846AFF30080421C0646D6D1AB895B06CC
:101E90003FF52CAF09981DB0BDE8F08F03AB009360
:101EA0002A46064B04A9384600F07AF8EBE700BF53
:101EB000E4240008EE240008000000000D1C0008C7
:101EC000EA2400082DE9F047164699468A680B690E
:101ED000DDF820809342B8BF1346336091F8432069
:101EE00007460C460AB1013333602368990642BFA6
:101EF000336802333360256815F0060506D104F116
:101F0000190AE36832689B1AAB4226DC94F8432036
:101F1000131E226818BF012392062BD404F143023A
:101F200049463846C04701301ED02368E56832680C
:101F300003F00603042B08BFAD1AA36822690CBF87
:101F400025EAE57500259342C4BF9B1AED180026CB
:101F50001A34B5421AD1002008E0012352464946FE
:101F60003846C047013003D14FF0FF30BDE8F0875D
:101F70000135C6E7E1185A1C302081F8430022449D
:101F800094F8451082F843100233C7E70123224634
:101F900049463846C0470130E6D00136D9E700004F
:101FA0002DE9FF470F7E0C9D782F914680460C4609
:101FB0009A4601F1430207D8622F0AD8002F00F099
:101FC000D880582F00F0A38004F1420584F84270B5
:101FD0003AE0A7F16303152BF6D801A151F823F0DD
:101FE000392000084D200008C91F0008C91F00083B
:101FF000C91F0008C91F00084D200008C91F00089C
:10200000C91F0008C91F0008C91F0008592100087E
:102010007D2000083B210008C91F0008C91F0008D7
:102020007B210008C91F00087D200008C91F000887
:10203000C91F0008432100082B681A1D1B682A606D
:1020400004F1420584F842300123A3E020682968A6
:10205000060601F104030AD50E682B60002E03DA90
:102060002D23764284F843305E480A2319E00E6837
:102070002B6010F0400F18BF36B2EFE72B682068D6
:10208000191D2960010601D51E6802E04606FBD530
:102090001E8854486F2F0CBF08230A23002184F8A0
:1020A00043106568A560002DA2BF216821F00401DE
:1020B00021600EB9002D4DD01546B6FBF3F103FBA0
:1020C0001167C75D05F8017D3746BB420E46F4D95E
:1020D000082B0BD12368DE0708D523696168994274
:1020E000DEBF302305F8013C05F1FF35521B2261AC
:1020F000CDF800A04B4603AA21464046FFF7E2FE7A
:1021000001304CD14FF0FF3004B0BDE8F0873548C6
:1021100081F845702968236851F8046B29601D0611
:1021200014D5DF0744BF43F0200323601EB92368A2
:1021300023F0200323601023B0E7236843F020033B
:1021400023607823284884F84530E3E7590648BFE0
:10215000B6B2E6E71546BBE72B6826686169181D2D
:10216000286035061B6801D5196002E07006FBD5B2
:102170001980002323611546BAE72B681A1D2A60CF
:102180001D68626800212846FEF72AF808B1401B46
:10219000606063682361002384F84330A8E7236903
:1021A0002A4649464046D0470130ABD023689B07BA
:1021B00013D4E068039B9842B8BF1846A4E70123F4
:1021C000324649464046D04701309BD00135E3684E
:1021D00003995B1AAB42F2DCEBE7002504F1190628
:1021E000F5E700BFF5240008062500080A449142DF
:1021F00000F1FF3300D1704710B511F8014B03F81F
:10220000014F9142F9D110BD884210B501EB020493
:1022100002D98442234607D8431EA14208D011F8B0
:10222000012B03F8012FF8E7024401468A4200D14E
:1022300010BD13F8014D02F8014DF7E737B500293D
:1022400044D051F8043C0190002BA1F10404B8BF24
:10225000E41800F013F91E4A0198136833B963605B
:10226000146003B0BDE8304000F00EB9A34208D9B5
:10227000256861198B4201BF19685B6849192160A3
:10228000EDE71A465B680BB1A342FAD911685518FD
:10229000A5420BD1246821445418A3421160E0D117
:1022A0001C685B68536021441160DAE702D90C2393
:1022B0000360D6E7256861198B4204BF19685B6823
:1022C000636004BF491921605460CAE703B030BDA0
:1022D000AC00002070B50E4E0C463168054611B9B1
:1022E00000F0BCF830602146284600F0B7F8431CE7
:1022F0000AD0C41C24F00304A04207D0211A2846A7
:1023000000F0ACF8013001D14FF0FF34204670BD31
:10231000B00000202DE9F041CD1C25F00305083563
:102320000C2D38BF0C25002D074601DBA94205D92D
:102330000C233B6000263046BDE8F0812E4E00F0B5
:102340009DF833681C4634BB29463846FFF7C2FF68
:10235000431C04464DD134682646002E40D12368E4
:102360003146384604EB030800F078F880453AD14E
:10237000216803356D1A25F0030508350C2D38BF8B
:102380000C2529463846FFF7A5FF01302BD02368DE
:102390002B4423600EE02268521B1ED40B2A16D950
:1023A0006119A342256018BF5960636808BF316096
:1023B00062514B60384604F10B0600F065F826F0D8
:1023C0000706231DF21AB6D09B1BA350B3E7626821
:1023D000A3420CBF32605A60ECE723466468B2E760
:1023E00034467668B9E70C233B60384600F04CF879
:1023F000A1E72560DEE700BFAC0000202DE9F04139
:10240000804614460E4621B9BDE8F0411146FFF75B
:1024100081BF2AB9FFF712FF25462846BDE8F081A3
:1024200000F038F88442074602D8B4EB500F12D8B7
:1024300021464046FFF76EFF05460028EDD0BC421E
:102440002246314628BF3A46FFF7D0FE3146404685
:10245000FFF7F4FEE1E73546DFE7000038B5064D4B
:102460000023044608462B60FEF766FB431C02D19E
:102470002B6803B1236038BDB4000020014800F090
:1024800011B800BFB8000020014800F00CB800BF30
:10249000B800002051F8043C181F002BBCBF0B589B
:1024A000C018704770477047F8B500BFF8BC08BC4B
:1024B0009E467047F8B500BFF8BC08BC9E46704702
:1024C000456E636F6465723A000000002530347514
:1024D00000000000000000000000000001020304F2
:1024E00006070809232D302B2000686C4C00656618
:1024F0006745464700303132333435363738394155
:10250000424344454600303132333435363738396A
:0825100061626364656600006E
:0825180098DDFF7F01000000C7
:04252000C5010008E9
:04252400A101000809
:102528000024F4001000000001000000100000204A
:102538000000000000000000000000000000000093
:102548000000000000000000000000000000000083
:102558000000000000000000000000000000000073
:102568000000000000000000000000000000000063
:102578000000000000000000000000000000000053
:102588000000000000000000000000000000000043
:0400000508000BC91B
:00000001FF
