:020000040800F2
:100000000080012029080008B1070008B707000890
:10001000BD070008C3070008C9070008000000006A
:10002000000000000000000000000000CF070008F2
:10003000DD07000800000000EB070008F9070008D2
:10004000790800087908000879080008790800088C
:10005000790800087908000879080008790800087C
:10006000790800087908000879080008790800086C
:10007000790800087908000879080008790800085C
:1000800079080008790800087908000800000000D5
:1000900000000000000000000000000079080008D7
:1000A000790800087908000879080008790800082C
:1000B000790800087908000879080008790800081C
:1000C000790800087908000879080008790800080C
:1000D0007908000879080008790800080000000085
:1000E0007908000879080008790800080000000075
:1000F0000000000000000000000000007908000877
:100100000000000079080008790800087908000854
:1001100000000000000000000000000000000000DF
:1001200079080008790800087908000879080008AB
:100130007908000800000000000000000000000036
:100140000000000000000000000000007908000826
:10015000790800087908000879080008790800087B
:10016000790800087908000800000000000000007D
:10017000000000000000000000000000000000007F
:1001800000000000790800080000000000000000E6
:0401900079080008E2
:1001940010B5054C237833B9044B13B10448AFF3BD
:1001A40000800123237010BD0C000020000000001B
:1001B4001020000808B5034B1BB103490348AFF3F3
:1001C400008008BD0000000010000020102000087E
:1001D40053B94AB9002908BF00281CBF4FF0FF31AA
:1001E4004FF0FF3000F074B9ADF1080C6DE904CEA6
:1001F40000F006F8DDF804E0DDE9022304B07047FE
:100204002DE9F047089D04468E46002B4DD18A42C5
:10021400944669D9B2FA82F252B101FA02F3C2F1F8
:10022400200120FA01F10CFA02FC41EA030E944089
:100234004FEA1C48210CBEFBF8F61FFA8CF708FBAA
:1002440016E341EA034306FB07F199420AD91CEB82
:10025400030306F1FF3080F01F81994240F21C81B4
:10026400023E63445B1AA4B2B3FBF8F008FB1033FC
:1002740044EA034400FB07F7A7420AD91CEB040431
:1002840000F1FF3380F00A81A74240F20781644401
:10029400023840EA0640E41B00261DB1D440002386
:1002A400C5E900433146BDE8F0878B4209D9002DEA
:1002B40000F0EF800026C5E9000130463146BDE874
:1002C400F087B3FA83F6002E4AD18B4202D38242DE
:1002D40000F2F980841A61EB030301209E46002D8D
:1002E400E0D0C5E9004EDDE702B9FFDEB2FA82F2E2
:1002F400002A40F09280A1EB0C014FEA1C471FFA40
:100304008CFE0126200CB1FBF7F307FB131140EA26
:1003140001410EFB03F0884208D91CEB010103F1F3
:10032400FF3802D2884200F2CB804346091AA4B2B5
:10033400B1FBF7F007FB101144EA01440EFB00FE89
:10034400A64508D91CEB040400F1FF3102D2A645EE
:1003540000F2BB800846A4EB0E0440EA03409CE78D
:10036400C6F12007B34022FA07FC4CEA030C20FA3A
:1003740007F401FA06F31C43F9404FEA1C4900FA5A
:1003840006F3B1FBF9F8200C1FFA8CFE09FB1811D7
:1003940040EA014108FB0EF0884202FA06F20BD94A
:1003A4001CEB010108F1FF3A80F08880884240F29A
:1003B4008580A8F102086144091AA4B2B1FBF9F0DE
:1003C40009FB101144EA014100FB0EFE8E4508D9D9
:1003D4001CEB010100F1FF346CD28E456AD902385E
:1003E400614440EA0840A0FB0294A1EB0E01A14243
:1003F400C846A64656D353D05DB1B3EB080261EBB1
:100404000E0101FA07F722FA06F3F1401F43C5E98A
:10041400007100263146BDE8F087C2F12003D840C0
:100424000CFA02FC21FA03F3914001434FEA1C4702
:100434001FFA8CFEB3FBF7F007FB10360B0C43EAF4
:10044400064300FB0EF69E4204FA02F408D91CEBA4
:10045400030300F1FF382FD29E422DD902386344A2
:100464009B1B89B2B3FBF7F607FB163341EA034142
:1004740006FB0EF38B4208D91CEB010106F1FF3891
:1004840016D28B4214D9023E6144C91A46EA004688
:1004940038E72E46284605E70646E3E61846F8E61A
:1004A4004B45A9D2B9EB020864EB0C0E0138A3E763
:1004B4004646EAE7204694E74046D1E7D0467BE744
:1004C400023B614432E7304609E76444023842E7BC
:1004D400704700BF80B5ADF5747D02AF00F0CCF974
:1004E40000F046F800F0D2F800F0A2F807F57273B5
:1004F400A3F571731C4A1846114640F2C2331A46DA
:1005040001F06EFD002387F8C73397F8C72307F57A
:100514007273A3F5717333F812301B0A9BB2DAB20B
:1005240007F57273A3F572731A7097F8C72307F56A
:100534007273A3F5717333F81230DAB207F572737C
:10054400A3F572735A703A460A2300930223C0211A
:10055400064800F0D5FD142000F000FA97F8C733E0
:10056400013387F8C733D0E728200008280000208B
:1005740080B594B000AF07F1200330220021184663
:1005840001F03CFD07F10C0300221A605A609A60E6
:10059400DA601A610023BB60234B1B6C224A43F0D0
:1005A40080531364204B1B6C03F08053BB60BB6807
:1005B40000237B601D4B1B6823F440431B4A43F418
:1005C40000431360194B1B6803F440437B607B6852
:1005D40002233B620123FB6210233B630023BB63C2
:1005E40007F12003184601F093F80346002B01D0CD
:1005F40000F066F80F23FB6000233B6100237B615E
:100604000023BB610023FB6107F10C0300211846A2
:1006140001F0F6FA0346002B01D000F051F800BFB8
:100624005037BD4680BD00BF003802400070004016
:1006340080B500AF124B134A1A60114B124A5A602C
:100644000F4B00229A600E4B0022DA600C4B4FF4E1
:1006540080421A610A4B00225A61094B00229A61B6
:10066400074B0022DA61064B00221A62044800F0AC
:1006740003FC0346002B01D000F022F800BF80BD2C
:100684002800002000540040A086010080B483B0FC
:1006940000AF00237B60094B1B6B084A43F0020345
:1006A4001363064B1B6B03F002037B607B6800BF84
:1006B4000C37BD465DF8047B704700BF003802402C
:1006C40080B400AF72B600BFFEE7000080B483B010
:1006D40000AF00237B60104B5B6C0F4A43F48043F4
:1006E40053640D4B5B6C03F480437B607B68002395
:1006F4003B60094B1B6C084A43F080531364064B60
:100704001B6C03F080533B603B6800BF0C37BD4655
:100714005DF8047B704700BF0038024080B58AB0A2
:1007240000AF786007F1140300221A605A609A60DF
:10073400DA601A617B681B68194A93422BD1002343
:100744003B61184B1B6B174A43F002031363154BB1
:100754001B6B03F002033B613B69C0237B611223E3
:10076400BB610023FB6103233B6204237B6207F12B
:10077400140319460C4800F0FBF90023FB60094BF5
:100784001B6C084A43F400131364064B1B6C03F4FC
:100794000013FB60FB6800BF2837BD4680BD00BF67
:1007A40000540040003802400004024080B400AF0E
:1007B400FEE780B400AFFEE780B400AFFEE780B48C
:1007C40000AFFEE780B400AFFEE780B400AF00BF27
:1007D400BD465DF8047B704780B400AF00BFBD46E2
:1007E4005DF8047B704780B400AF00BFBD465DF880
:1007F400047B704780B500AF00F090F800BF80BD67
:1008040080B400AF064BD3F88830054A43F4700334
:10081400C2F8883000BFBD465DF8047B704700BF56
:1008240000ED00E0DFF834D00D480E490E4A0023F5
:1008340002E0D458C4500433C4188C42F9D30B4A90
:100844000B4C002301E013600432A242FBD3FFF7F8
:10085400D7FF01F0A1FBFFF73DFE704700800120A8
:10086400000000200C000020142400080C000020CC
:1008740080000020FEE7000080B500AF0E4B1B682F
:100884000D4A43F4007313600B4B1B680A4A43F48C
:1008940080631360084B1B68074A43F4807313603A
:1008A400032000F031F90F2000F008F8FFF70EFFE5
:1008B4000023184680BD00BF003C024080B582B0D2
:1008C40000AF7860124B1A68124B1B7819464FF42C
:1008D4007A73B3FBF1F3B2FBF3F3184600F03BF980
:1008E4000346002B01D001230EE07B680F2B0AD8AE
:1008F400002279684FF0FF3000F011F9064A7B6856
:100904001360002300E0012318460837BD4680BD6C
:1009140000000020080000200400002080B400AF84
:10092400064B1B781A46064B1B681344044A136093
:1009340000BFBD465DF8047B704700BF080000207F
:100944007C00002080B400AF034B1B681846BD46F2
:100954005DF8047B704700BF7C00002080B584B044
:1009640000AF7860FFF7EEFFB8607B68FB60FB6860
:10097400B3F1FF3F05D00A4B1B781A46FB681344BA
:10098400FB6000BFFFF7DEFF0246BB68D31AFA68BC
:100994009A42F7D800BF00BF1037BD4680BD00BFE4
:1009A4000800002080B485B000AF78607B6803F055
:1009B4000703FB600C4BDB68BB60BA684FF6FF03B0
:1009C4001340BB60FB681A02BB68134343F0BF6368
:1009D40043F40033BB60044ABB68D36000BF1437E0
:1009E400BD465DF8047B704700ED00E080B400AFC5
:1009F400044BDB681B0A03F007031846BD465DF889
:100A0400047B704700ED00E080B483B000AF034680
:100A14003960FB7197F90730002B0ADB3B68DAB2C7
:100A24000C4997F907301201D2B20B4483F8002322
:100A34000AE03B68DAB20849FB7903F00F03043B90
:100A44001201D2B20B441A7600BF0C37BD465DF8D2
:100A5400047B704700E100E000ED00E080B489B061
:100A640000AFF860B9607A60FB6803F00703FB61CC
:100A7400FB69C3F10703042B28BF0423BB61FB6993
:100A84000433062B02D9FB69033B00E000237B619E
:100A94004FF0FF32BB6902FA03F3DA43BB681A4032
:100AA4007B699A404FF0FF317B6901FA03F3D94324
:100AB4007B680B40134318462437BD465DF8047B1E
:100AC4007047000080B582B000AF78607B68013B5E
:100AD400B3F1807F01D301230FE00A4A7B68013B15
:100AE40053600F214FF0FF30FFF78EFF054B0022BC
:100AF4009A60044B07221A60002318460837BD4643
:100B040080BD00BF10E000E080B582B000AF786027
:100B14007868FFF747FF00BF0837BD4680BD80B542
:100B240086B000AF0346B9607A60FB7300237B6133
:100B3400FFF75CFF78617A68B9687869FFF78EFF20
:100B4400024697F90F3011461846FFF75DFF00BFC4
:100B54001837BD4680BD80B582B000AF7860786834
:100B6400FFF7B0FF034618460837BD4680BD0000B6
:100B740080B489B000AF7860396000237B610023C2
:100B84003B610023BB610023FB6159E10122FB6946
:100B940002FA03F37B613B681B687A6913403B618B
:100BA4003A697B699A4240F048813B685B6803F08C
:100BB4000303012B05D03B685B6803F00303022B9E
:100BC40030D17B689B68BB61FB695B00032202FA3E
:100BD40003F3DB43BA691340BB613B68DA68FB6922
:100BE4005B0002FA03F3BA691343BB617B68BA6919
:100BF4009A607B685B68BB610122FB6902FA03F3BC
:100C0400DB43BA691340BB613B685B681B0903F0B3
:100C14000102FB6902FA03F3BA691343BB617B68FF
:100C2400BA695A603B685B6803F00303032B17D06F
:100C34007B68DB68BB61FB695B00032202FA03F398
:100C4400DB43BA691340BB613B689A68FB695B008C
:100C540002FA03F3BA691343BB617B68BA69DA60C9
:100C64003B685B6803F00303022B23D1FB69DA08BA
:100C74007B68083253F82230BB61FB6903F0070339
:100C84009B000F2202FA03F3DB43BA691340BB61F2
:100C94003B681A69FB6903F007039B0002FA03F33C
:100CA400BA691343BB61FB69DA087B680832B96926
:100CB40043F822107B681B68BB61FB695B0003225D
:100CC40002FA03F3DB43BA691340BB613B685B6818
:100CD40003F00302FB695B0002FA03F3BA691343EE
:100CE400BB617B68BA691A603B685B6803F4403394
:100CF400002B00F0A2800023FB60574B5B6C564A2C
:100D040043F480435364544B5B6C03F48043FB60B3
:100D1400FB68524AFB699B08023352F82330BB61DB
:100D2400FB6903F003039B000F2202FA03F3DB4386
:100D3400BA691340BB617B68494A934219D07B6806
:100D4400484A934213D07B68474A93420DD07B684C
:100D5400464A934207D07B68454A934201D1042313
:100D640008E0072306E0032304E0022302E0012352
:100D740000E00023FA6902F0030292009340BA698A
:100D84001343BB613549FB699B080233BA6941F8D7
:100D94002320384B9B68BB613B69DB43BA69134032
:100DA400BB613B685B6803F48013002B03D0BA6912
:100DB4003B691343BB612F4ABB6993602D4BDB68CE
:100DC400BB613B69DB43BA691340BB613B685B6849
:100DD40003F40013002B03D0BA693B691343BB61CE
:100DE400244ABB69D360234B5B68BB613B69DB432B
:100DF400BA691340BB613B685B6803F40033002BA2
:100E040003D0BA693B691343BB611A4ABB69536097
:100E1400184B1B68BB613B69DB43BA691340BB6178
:100E24003B685B6803F48033002B03D0BA693B69E9
:100E34001343BB610F4ABB691360FB690133FB6158
:100E4400FB690F2B7FF6A2AE00BF00BF2437BD465F
:100E54005DF8047B704700BF003802400038014051
:100E6400000002400004024000080240000C02405E
:100E740000100240003C014080B584B000AF7860AF
:100E84007B68002B01D101232BE17B6893F83D3073
:100E9400DBB2002B06D17B68002283F83C20786803
:100EA400FFF73CFC7B68242283F83D207B681B68A9
:100EB4001A687B681B6822F001021A607B681B6851
:100EC4001A687B681B6842F400421A607B681B68DE
:100ED4001A687B681B6822F400421A6001F048F823
:100EE400F8607B685B68814A934207D8FB68804A54
:100EF400934294BF01230023DBB206E0FB687D4AE2
:100F0400934294BF01230023DBB2002B01D00123C1
:100F1400E7E0FB68784AA2FB03239B0CBB607B6879
:100F24001B685B6823F03F017B681B68BA680A434F
:100F34005A607B681B681B6A23F03F017B685B680F
:100F44006A4A934202D8BB68013309E0BB684FF494
:100F5400967202FB03F3694AA2FB03239B09013344
:100F64007A6812680B4313627B681B68DB6923F49D
:100F74004F4222F0FF027B685B685C498B4219D8C0
:100F8400FB68591E7B685B685B00B1FBF3F3591C7B
:100F940040F6FC730B40002B0AD0FB68591E7B689B
:100FA4005B685B00B1FBF3F30133C3F30B0351E064
:100FB40004234FE07B689B68002B11D1FB68581E0B
:100FC4007B6859680B465B000B44B0FBF3F30133B9
:100FD400C3F30B03002B0CBF01230023DBB212E08D
:100FE400FB68581E7B6859680B469B000B449900AC
:100FF4000B44B0FBF3F30133C3F30B03002B0CBF1F
:1010040001230023DBB2002B01D0012322E07B6803
:101014009B68002B0ED1FB68581E7B6859680B46F1
:101024005B000B44B0FBF3F30133C3F30B0343F452
:1010340000430FE0FB68581E7B6859680B469B0011
:101044000B4499000B44B0FBF3F30133C3F30B03DC
:1010540043F44043796809681343CB617B681B6898
:101064001B6823F0C0017B68DA697B681B6A1A433A
:101074007B681B680A431A607B681B689B6823F4BF
:10108400034323F0FF037A6811697A68D268114335
:101094007A6812680B4393607B681B68DB6823F0F3
:1010A400FF017B685A697B689B691A437B681B68EC
:1010B4000A43DA607B681B681A687B681B6842F025
:1010C40001021A607B6800221A647B68202283F87C
:1010D4003D207B6800221A637B68002283F83E204F
:1010E400002318461037BD4680BD00BFA08601000E
:1010F4007F841E00FF083D0083DE1B43D34D621036
:1011040080B588B002AFF8607A601A460B467B81DE
:1011140013463B81FFF716FC7861FB6893F83D307A
:10112400DBB2202B40F0E0807B690093192301227D
:101134007049F86800F064F90346002B01D00223DB
:10114400D3E0FB6893F83C30012B01D10223CCE0BF
:10115400FB68012283F83C20FB681B681B6803F0D2
:101164000103012B07D0FB681B681A68FB681B6826
:1011740042F001021A60FB681B681A68FB681B686E
:1011840022F400621A60FB68212283F83D20FB6888
:10119400102283F83E20FB6800221A64FB687A68F8
:1011A4005A62FB683A895A85FB685B8D9AB2FB6880
:1011B4001A85FB68504ADA6279897B693A6AF86869
:1011C40000F09CF80346002B01D001238DE000239E
:1011D4003B61FB681B685B693B61FB681B689B693F
:1011E4003B613B6966E07A69396AF86800F0DEF9C8
:1011F4000346002B0DD0FB681B6C042B07D1FB6846
:101204001B681A68FB681B6842F400721A600123A9
:101214006BE0FB685B6A1A78FB681B681A61FB6801
:101224005B6A5A1CFB685A62FB685B8D9BB2013B8C
:101234009AB2FB685A85FB681B8D013B9AB2FB6826
:101244001A85FB681B685B6903F00403042B1BD13C
:10125400FB681B8D002B17D0FB685B6A1A78FB6850
:101264001B681A61FB685B6A5A1CFB685A62FB685C
:101274005B8D9BB2013B9AB2FB685A85FB681B8D60
:10128400013B9AB2FB681A857A69396AF86800F0FA
:10129400CEF90346002B0DD0FB681B6C042B07D141
:1012A400FB681B681A68FB681B6842F400721A60CA
:1012B40001231AE0FB681B8D002B94D1FB681B688B
:1012C4001A68FB681B6842F400721A60FB682022EB
:1012D40083F83D20FB68002283F83E20FB6800224F
:1012E40083F83C20002300E0022318461837BD464B
:1012F40080BD00BF020010000000FFFF80B588B071
:1013040002AFF8607A603B600B467B81FB68DB6A66
:101314007B617B69082B06D07B69012B03D07B6939
:1013240013F5803F08D1FB681B681A68FB681B68CB
:1013340042F480721A600BE0FB681B6B122B07D11E
:10134400FB681B681A68FB681B6842F480721A60A9
:101354003B6800937B6800224FF00111F86800F0AD
:101364004FF80346002B0DD0FB681B681B6803F481
:101374008073B3F5807F03D1FB684FF400721A6465
:10138400032335E0FB681B69B3F5804F08D17B89E3
:10139400DBB21A46FB681B6802F0FE021A611BE00E
:1013A4007B89DB11DBB203F00603DBB263F00F03CE
:1013B400DAB2FB681B681A613B687A680E49F86800
:1013C40000F075F80346002B01D0012310E07B895F
:1013D400DAB2FB681B681A613B687A680749F868E7
:1013E40000F065F80346002B01D0012300E0002340
:1013F40018461837BD4680BD0800010002000100F0
:1014040080B584B000AFF860B9603B601346FB71EF
:1014140025E03B68B3F1FF3F21D0FFF793FA024682
:10142400BB69D31A3A689A4202D33B68002B16D19F
:10143400FB6800221A63FB68202283F83D20FB68C6
:10144400002283F83E20FB681B6C43F02002FB68FB
:101454001A64FB68002283F83C20012323E0BB6864
:101464001B0CDBB2012B0DD1FB681B685B69DA43F3
:10147400BB6813409BB2002B0CBF01230023DBB2DB
:101484001A460CE0FB681B689B69DA43BB6813408F
:101494009BB2002B0CBF01230023DBB21A46FB795D
:1014A4009A42B6D0002318461037BD4680BD80B599
:1014B40084B000AFF860B9607A603B6051E0FB68CB
:1014C4001B685B6903F48063B3F5806F23D1FB6809
:1014D4001B681A68FB681B6842F400721A60FB6898
:1014E4001B686FF480625A61FB6800221A63FB6810
:1014F400202283F83D20FB68002283F83E20FB680D
:101504001B6C43F00402FB681A64FB68002283F836
:101514003C20012346E07B68B3F1FF3F21D0FFF775
:1015240011FA02463B68D31A7A689A4202D37B685E
:10153400002B16D1FB6800221A63FB68202283F873
:101544003D20FB68002283F83E20FB681B6C43F0BF
:101554002002FB681A64FB68002283F83C20012304
:1015640020E0BB681B0CDBB2012B0CD1FB681B68B1
:101574005B69DA43BB6813409BB2002B14BF0123A1
:101584000023DBB20BE0FB681B689B69DA43BB6892
:1015940013409BB2002B14BF01230023DBB2002BAA
:1015A4008DD1002318461037BD4680BD80B584B068
:1015B40000AFF860B9607A602DE0F86800F078F860
:1015C4000346002B01D001232DE0BB68B3F1FF3F9C
:1015D40021D0FFF7B7F902467B68D31ABA689A425A
:1015E40002D3BB68002B16D1FB6800221A63FB6888
:1015F400202283F83D20FB68002283F83E20FB680C
:101604001B6C43F02002FB681A64FB68002283F819
:101614003C20012307E0FB681B685B6903F080033F
:10162400802BCAD1002318461037BD4680BD80B533
:1016340084B000AFF860B9607A602DE0F86800F01B
:1016440037F80346002B01D001232DE0BB68B3F12A
:10165400FF3F21D0FFF776F902467B68D31ABA68B8
:101664009A4202D3BB68002B16D1FB6800221A638E
:10167400FB68202283F83D20FB68002283F83E208B
:10168400FB681B6C43F02002FB681A64FB680022B1
:1016940083F83C20012307E0FB681B685B6903F0C7
:1016A4000403042BCAD1002318461037BD4680BD5D
:1016B40080B483B000AF78607B681B685B6903F417
:1016C4008063B3F5806F1BD17B681B686FF4806205
:1016D4005A617B6800221A637B68202283F83D20CC
:1016E4007B68002283F83E207B681B6C43F0040275
:1016F4007B681A647B68002283F83C20012300E0A5
:10170400002318460C37BD465DF8047B7047000083
:1017140080B586B000AF78607B68002B01D10123CF
:1017240067E27B681B6803F00103002B75D0884BCC
:101734009B6803F00C03042B0CD0854B9B6803F0CF
:101744000C03082B12D1824B5B6803F48003B3F5BE
:10175400800F0BD17E4B1B6803F40033002B5BD04E
:101764007B685B68002B57D1012342E27B685B688E
:10177400B3F5803F06D1764B1B68754A43F480333A
:1017840013601DE07B685B68B3F5A02F0CD1704B30
:101794001B686F4A43F4802313606D4B1B686C4ACB
:1017A40043F4803313600BE0694B1B68684A23F4ED
:1017B40080331360664B1B68654A23F480231360EF
:1017C4007B685B68002B13D0FFF7BCF8386108E036
:1017D400FFF7B8F802463B69D31A642B01D90323F7
:1017E40007E25B4B1B6803F40033002BF0D014E0DA
:1017F400FFF7A8F8386108E0FFF7A4F802463B6950
:10180400D31A642B01D90323F3E1514B1B6803F46E
:101814000033002BF0D100E000BF7B681B6803F0AD
:101824000203002B63D04A4B9B6803F00C03002B8C
:101834000BD0474B9B6803F00C03082B1CD1444B83
:101844005B6803F48003002B16D1414B1B6803F043
:101854000203002B05D07B68DB68012B01D0012338
:10186400C7E13B4B1B6823F0F8027B681B69DB0074
:10187400374913430B603AE07B68DB68002B20D0C8
:10188400344B01221A60FFF75DF8386108E0FFF776
:1018940059F802463B69D31A022B01D90323A8E164
:1018A4002B4B1B6803F00203002BF0D0284B1B6862
:1018B40023F0F8027B681B69DB00254913430B60A6
:1018C40015E0244B00221A60FFF73CF8386108E069
:1018D400FFF738F802463B69D31A022B01D90323D8
:1018E40087E11B4B1B6803F00203002BF0D17B68DC
:1018F4001B6803F00803002B36D07B685B69002B60
:1019040016D0154B01221A60FFF71CF8386108E065
:10191400FFF718F802463B69D31A022B01D90323B7
:1019240067E10B4B5B6F03F00203002BF0D01BE06D
:10193400094B00221A60FFF705F838610EE0FFF743
:1019440001F802463B69D31A022B07D9032350E15D
:101954000038024000004742800E4742884B5B6FCC
:1019640003F00203002BEAD17B681B6803F0040335
:10197400002B00F097800023FB75814B1B6C03F058
:101984008053002B0FD10023BB607D4B1B6C7C4A22
:1019940043F0805313647A4B1B6C03F08053BB6099
:1019A400BB680123FB75774B1B6803F48073002B22
:1019B40018D1744B1B68734A43F480731360FEF7A9
:1019C400C1FF386108E0FEF7BDFF02463B69D31A48
:1019D400022B01D903230CE16A4B1B6803F48073C7
:1019E400002BF0D07B689B68012B06D1644B1B6FE6
:1019F400634A43F0010313671CE07B689B68052B73
:101A04000CD15F4B1B6F5E4A43F0040313675C4BBE
:101A14001B6F5B4A43F0010313670BE0584B1B6FCA
:101A2400574A23F001031367554B1B6F544A23F0A5
:101A3400040313677B689B68002B15D0FEF782FFB5
:101A440038610AE0FEF77EFF02463B69D31A41F291
:101A54008832934201D90323CBE0494B1B6F03F037
:101A64000203002BEED014E0FEF76CFF38610AE0AD
:101A7400FEF768FF02463B69D31A41F2883293426B
:101A840001D90323B5E03E4B1B6F03F00203002B87
:101A9400EED1FB7D012B05D1394B1B6C384A23F069
:101AA400805313647B689B69002B00F0A180344B46
:101AB4009B6803F00C03082B5CD07B689B69022BAA
:101AC40041D1314B00221A60FEF73CFF386108E037
:101AD400FEF738FF02463B69D31A022B01D90323D0
:101AE40087E0274B1B6803F00073002BF0D17B6861
:101AF400DA697B681B6A1A437B685B6A9B011A4339
:101B04007B689B6A5B08013B1B041A437B68DB6AA6
:101B14001B061B4913434B601B4B01221A60FEF743
:101B240011FF386108E0FEF70DFF02463B69D31A46
:101B3400022B01D903235CE0114B1B6803F00073F3
:101B4400002BF0D054E0104B00221A60FEF7FAFE8E
:101B5400386108E0FEF7F6FE02463B69D31A022B11
:101B640001D9032345E0064B1B6803F00073002BE7
:101B7400F0D13DE07B689B69012B07D1012338E05C
:101B84000038024000700040600047421B4B5B6815
:101B9400FB607B689B69012B28D0FB6803F48002FF
:101BA4007B68DB699A4221D1FB6803F03F027B68C2
:101BB4001B6A9A421AD1FA6847F6C07313407A68CE
:101BC400526A9201934211D1FB6803F440327B685C
:101BD4009B6A5B08013B1B049A4207D1FB6803F034
:101BE40070627B68DB6A1B069A4201D0012300E025
:101BF400002318461837BD4680BD00BF0038024098
:101C040080B584B000AF786039607B68002B01D167
:101C14000123CCE0684B1B6803F007033A689A423F
:101C24000CD9654B3A68D2B21A70634B1B6803F047
:101C340007033A689A4201D00123B8E07B681B6825
:101C440003F00203002B20D07B681B6803F004031D
:101C5400002B05D0594B9B68584A43F4E0539360DA
:101C64007B681B6803F00803002B05D0534B9B686B
:101C7400524A43F460439360504B9B6823F0F00254
:101C84007B689B684D4913438B607B681B6803F03A
:101C94000103002B44D07B685B68012B07D1474BC1
:101CA4001B6803F40033002B19D101237FE07B6808
:101CB4005B68022B03D07B685B68032B07D13F4B27
:101CC4001B6803F00073002B09D101236FE03B4B29
:101CD4001B6803F00203002B01D1012367E0374B9B
:101CE4009B6823F003027B685B68344913438B6071
:101CF400FEF728FEF8600AE0FEF724FE0246FB68C1
:101D0400D31A41F28832934201D903234FE02B4B7B
:101D14009B6803F00C027B685B689B009A42EBD1E2
:101D2400254B1B6803F007033A689A420CD2224BF6
:101D34003A68D2B21A70204B1B6803F007033A6862
:101D44009A4201D0012332E07B681B6803F004034C
:101D5400002B08D0194B9B6823F4E0527B68DB68A6
:101D6400164913438B607B681B6803F00803002B40
:101D740009D0124B9B6823F460427B681B69DB002B
:101D84000E4913438B6000F021F802460B4B9B680D
:101D94001B0903F00F030A49CB5C22FA03F3094A37
:101DA4001360094B1B681846FEF788FD002318468C
:101DB4001037BD4680BD00BF003C024000380240E1
:101DC400EC23000800000020040000202DE9B04F9F
:101DD40090B000AF00237B630023FB6300233B63CD
:101DE4000023BB63594B9B6803F00C03082B0DD0F5
:101DF400082B00F2A180002B02D0042B03D09BE01F
:101E0400534BBB639BE0534BBB6398E04F4B5B6806
:101E140003F03F037B634D4B5B6803F48003002BAB
:101E240028D04A4B5B689B0900223B627A623B6A7A
:101E3400C3F308000021474B03FB01F2002300FB1E
:101E440003F31344434AA0FB0212FA620A46BA623D
:101E5400FA6A1344FB627B6B0022BB61FA61D7E927
:101E64000623D7E90A01FEF7B3F902460B461346E7
:101E7400FB6353E0354B5B689B0900223B617A614D
:101E84003B69C3F3080A4FF0000B52465B464FF020
:101E940000004FF00001590141EAD26150010246AD
:101EA4000B46B2EB0A0863EB0B094FF000024FF04C
:101EB40000034FEA891343EA98634FEA8812B2EBAE
:101EC400080463EB09054FF000024FF00003EB0038
:101ED40043EA5473E20014461D4614EB0A033B60C4
:101EE40045EB0B037B604FF000024FF00003D7E992
:101EF400004529468B02214643EA915321468A0232
:101F0400104619467B6B0022BB60FA60D7E90223B6
:101F1400FEF75EF902460B461346FB630B4B5B6808
:101F24001B0C03F0030301335B003B63FA6B3B6B55
:101F3400B2FBF3F3BB6302E0054BBB6300BFBB6BB7
:101F440018464037BD46BDE8B08F00BF0038024098
:101F54000024F40040787D0180B400AF034B1B687B
:101F64001846BD465DF8047B704700BF00000020A2
:101F740080B500AFFFF7F0FF0246054B9B689B0A54
:101F840003F007030349CB5C22FA03F3184680BD30
:101F940000380240FC23000870B50D4D0D4C641B45
:101FA400A4100026A64209D10B4D0C4C00F02EF8CB
:101FB400641BA4100026A64205D170BD55F8043B4D
:101FC40098470136EEE755F8043B98470136F2E7A7
:101FD4000C2400080C2400080C2400081024000819
:101FE4000A44914200F1FF3300D1704710B511F853
:101FF400014B03F8014F9142F9D110BD024403464D
:10200400934200D1704703F8011BF9E7F8B500BF0C
:10201400F8BC08BC9E467047F8B500BFF8BC08BCC5
:042024009E4670471D
:102028003508F7080408C608880995085609180AE3
:102038002409E509A50AB109700A300B3A0AF90A18
:10204800B70BC00A7D0B390C400BFB0BB60CBB0B56
:10205800740C2C0D2F0CE60C9C0D9C0C510D040ED1
:10206800020DB30D640E5E0D0D0EBA0EB20D5E0EAE
:10207800080FFC0DA50E4C0F3D0EE10E850F720EDC
:10208800140FB30F9D0E3B0FD70FBE0E570FF00F57
:10209800D20E680FFD0FDC0E6E0FFF0FDA0E680F01
:1020A800F60FCD0E570FE10FB40E3B0FC10F900E78
:1020B800140F960F620EE10E600F280EA50E200F6A
:1020C800E50D5E0ED50E970D0D0E820E400DB30D6B
:1020D800250EE10C510DBF0D790CE60C520D090CC3
:1020E800740CDE0C930BFB0B630C160B7D0BE30BD4
:1020F800940AF90A5D0B0D0A700AD40A8209E509E7
:10210800470AF4085609B8096508C6082709D40714
:10211800350896084307A4070508B206140776078A
:1021280023068506E8069605FA055D060D0572057F
:10213800D7058804EE04540507046F04D8048C03FB
:10214800F603610418038403F103AB021A0389033D
:102158004502B7022A03E9015D02D30295010D0287
:1021680085024B01C60142020A0189010902D50014
:102178005701DA01AA002F01B6018A0013019E0156
:102188007500020190016B00FC008E016D000201D8
:1021980098017A001301AD0193002F01CD01B7001A
:1021A8005701F801E50089012E021F01C6016E02E0
:1021B80062010D02B802B0015D020C030702B7020A
:1021C800690366021A03CE03CE0284033B043E036E
:1021D800F603AF04B5036F042A053104EE04AB051A
:1021E800B304720530063A05FA05BA06C505850630
:1021F800460753061407D507E206A40766087307BF
:102208003508F7080408C608880995085609180A01
:102218002409E509A50AB109700A300B3A0AF90A36
:10222800B70BC00A7D0B390C400BFB0BB60CBB0B74
:10223800740C2C0D2F0CE60C9C0D9C0C510D040EEF
:10224800020DB30D640E5E0D0D0EBA0EB20D5E0ECC
:10225800080FFC0DA50E4C0F3D0EE10E850F720EFA
:10226800140FB30F9D0E3B0FD70FBE0E570FF00F75
:10227800D20E680FFD0FDC0E6E0FFF0FDA0E680F1F
:10228800F60FCD0E570FE10FB40E3B0FC10F900E96
:10229800140F960F620EE10E600F280EA50E200F88
:1022A800E50D5E0ED50E970D0D0E820E400DB30D89
:1022B800250EE10C510DBF0D790CE60C520D090CE1
:1022C800740CDE0C930BFB0B630C160B7D0BE30BF2
:1022D800940AF90A5D0B0D0A700AD40A8209E50905
:1022E800470AF4085609B8096508C6082709D40733
:1022F800350896084307A4070508B20614077607A9
:1023080023068506E8069605FA055D060D0572059D
:10231800D7058804EE04540507046F04D8048C0319
:10232800F603610418038403F103AB021A0389035B
:102338004502B7022A03E9015D02D30295010D02A5
:1023480085024B01C60142020A0189010902D50032
:102358005701DA01AA002F01B6018A0013019E0174
:102368007500020190016B00FC008E016D000201F6
:1023780098017A001301AD0193002F01CD01B70038
:102388005701F801E50089012E021F01C6016E02FE
:1023980062010D02B802B0015D020C030702B70228
:1023A800690366021A03CE03CE0284033B043E038C
:1023B800F603AF04B5036F042A053104EE04AB0538
:1023C800B304720530063A05FA05BA06C50585064E
:1023D800460753061407D507E206A40766087307DD
:1023E800350800000000000000000000010203049E
:0C23F800060708090000000001020304B1
:0824040000DEFF7F0100000073
:04240C00B90100080A
:04241000950100082A
:0C2414000024F400100000000100000093
:0400000508000829BE
:00000001FF
