:020000040800F2
:1000000000800120890D0008910C0008970C000861
:100010009D0C0008A30C0008A90C000800000000BB
:10002000000000000000000000000000AF0C00080D
:10003000BD0C000800000000CB0C0008D90C000823
:10004000D90D0008D90D0008D90D0008D90D0008F8
:10005000D90D0008D90D0008D90D0008D90D0008E8
:10006000D90D0008D90D0008D90D0008D90D0008D8
:10007000D90D0008D90D0008D90D0008D90D0008C8
:10008000D90D0008D90D0008D90D000800000000A6
:10009000000000000000000000000000D90D000872
:1000A000D90D0008D90D0008D90D0008D90D000898
:1000B000D90D0008E50C0008D90D0008D90D00087D
:1000C000D90D0008D90D0008D90D0008D90D000878
:1000D000D90D0008D90D0008D90D00080000000056
:1000E000D90D0008D90D0008D90D00080000000046
:1000F000000000000000000000000000D90D000812
:1001000000000000D90D0008D90D0008D90D000825
:1001100000000000000000000000000000000000DF
:10012000D90D0008D90D0008D90D0008D90D000817
:10013000D90D0008000000000000000000000000D1
:10014000000000000000000000000000D90D0008C1
:10015000D90D0008D90D0008D90D0008D90D0008E7
:10016000D90D0008D90D00080000000000000000B3
:10017000000000000000000000000000000000007F
:1001800000000000D90D0008000000000000000081
:04019000D90D00087D
:1001A00010B5054C237833B9044B13B10448AFF3B1
:1001B00000800123237010BD7000002000000000AB
:1001C000802F000808B5034B1BB103490348AFF368
:1001D000008008BD0000000074000020802F00088F
:1001E00001F0FF01102A2BDB10F0070F08D010F8E8
:1001F000013B013A8B422DD010F0070F42B3F6D1EC
:10020000F0B441EA012141EA014122F007047FF004
:1002100000070023F0E80256083C85EA010586EA5B
:10022000010685FA47F5A3FA87F586FA47F6A5FA97
:1002300087F68EB9EED1F0BC01F0FF0102F00702A3
:1002400032B110F8013B013A83EA010313B1F8D14E
:100250000020704701387047002D06BF354603382F
:10026000073815F0010F07D1013015F4807F02BF68
:10027000013015F4C03F0130F0BC0138704700BFB9
:1002800053B94AB9002908BF00281CBF4FF0FF31FD
:100290004FF0FF3000F074B9ADF1080C6DE904CEF9
:1002A00000F006F8DDF804E0DDE9022304B0704751
:1002B0002DE9F047089D04468E46002B4DD18A4219
:1002C000944669D9B2FA82F252B101FA02F3C2F14C
:1002D000200120FA01F10CFA02FC41EA030E9440DD
:1002E0004FEA1C48210CBEFBF8F61FFA8CF708FBFE
:1002F00016E341EA034306FB07F199420AD91CEBD6
:10030000030306F1FF3080F01F81994240F21C8107
:10031000023E63445B1AA4B2B3FBF8F008FB10334F
:1003200044EA034400FB07F7A7420AD91CEB040484
:1003300000F1FF3380F00A81A74240F20781644454
:10034000023840EA0640E41B00261DB1D4400023D9
:10035000C5E900433146BDE8F0878B4209D9002D3D
:1003600000F0EF800026C5E9000130463146BDE8C7
:10037000F087B3FA83F6002E4AD18B4202D3824231
:1003800000F2F980841A61EB030301209E46002DE0
:10039000E0D0C5E9004EDDE702B9FFDEB2FA82F235
:1003A000002A40F09280A1EB0C014FEA1C471FFA93
:1003B0008CFE0126200CB1FBF7F307FB131140EA7A
:1003C00001410EFB03F0884208D91CEB010103F147
:1003D000FF3802D2884200F2CB804346091AA4B209
:1003E000B1FBF7F007FB101144EA01440EFB00FEDD
:1003F000A64508D91CEB040400F1FF3102D2A64542
:1004000000F2BB800846A4EB0E0440EA03409CE7E0
:10041000C6F12007B34022FA07FC4CEA030C20FA8D
:1004200007F401FA06F31C43F9404FEA1C4900FAAD
:1004300006F3B1FBF9F8200C1FFA8CFE09FB18112A
:1004400040EA014108FB0EF0884202FA06F20BD99D
:100450001CEB010108F1FF3A80F08880884240F2ED
:100460008580A8F102086144091AA4B2B1FBF9F031
:1004700009FB101144EA014100FB0EFE8E4508D92C
:100480001CEB010100F1FF346CD28E456AD90238B1
:10049000614440EA0840A0FB0294A1EB0E01A14296
:1004A000C846A64656D353D05DB1B3EB080261EB04
:1004B0000E0101FA07F722FA06F3F1401F43C5E9DE
:1004C000007100263146BDE8F087C2F12003D84014
:1004D0000CFA02FC21FA03F3914001434FEA1C4756
:1004E0001FFA8CFEB3FBF7F007FB10360B0C43EA48
:1004F000064300FB0EF69E4204FA02F408D91CEBF8
:10050000030300F1FF382FD29E422DD902386344F5
:100510009B1B89B2B3FBF7F607FB163341EA034195
:1005200006FB0EF38B4208D91CEB010106F1FF38E4
:1005300016D28B4214D9023E6144C91A46EA0046DB
:1005400038E72E46284605E70646E3E61846F8E66D
:100550004B45A9D2B9EB020864EB0C0E0138A3E7B6
:100560004646EAE7204694E74046D1E7D0467BE797
:10057000023B614432E7304609E76444023842E70F
:10058000704700BF80B483B000AF0023FB8002E05F
:10059000FB880133FB80FB88B3F5FA6FF8D300BF0B
:1005A00000BF0C37BD465DF8047B704780B500AFD7
:1005B00000224FF40071214800F03CFF002210217E
:1005C0001E4800F037FF002201211D4800F032FFD5
:1005D000002202211B4800F02DFF002201211948B2
:1005E00000F028FF142000F06BFC032000F02CF832
:1005F000052000F065FC032000F026F8012000F043
:100600005FFC032000F020F8012000F059FC0220DC
:1006100000F01AF8012000F053FC282000F072F8D6
:100620000C2000F06FF8012000F06CF8062000F0BC
:1006300069F8802000F066F800BF80BD000002402D
:10064000000402400008024080B582B000AF0346BB
:10065000FB71FB7903F00103002B05D0012210216F
:10066000254800F0E7FE04E000221021224800F0B7
:10067000E1FEFB7903F00203002B05D001220121EA
:100680001E4800F0D7FE04E0002201211B4800F0C4
:10069000D1FEFB7903F00403002B05D001220221D7
:1006A000174800F0C7FE04E000220221144800F0C1
:1006B000C1FEFB7903F00803002B05D001220121C4
:1006C0000F4800F0B7FE04E0002201210C4800F0C2
:1006D000B1FE01224FF40071074800F0ABFEFFF7B6
:1006E00051FF00224FF40071034800F0A3FE00BF49
:1006F0000837BD4680BD00BF000002400004024034
:100700000008024080B582B000AF0346FB710022B2
:100710008021104800F08EFEFB791B09DBB21846E1
:10072000FFF792FFFB7903F00F03DBB21846FFF7E8
:100730008BFFFB79012B02D0FB79022B03D1012027
:1007400000F0BEFB02E0FFF71DFF00BF00BF08374F
:10075000BD4680BD0008024080B582B000AF0346B0
:10076000FB71012280210B4800F064FEFB791B091C
:10077000DBB21846FFF768FFFB7903F00F03DBB22B
:100780001846FFF761FFFFF7FDFE00BF0837BD46C3
:1007900080BD00BF0008024080B582B000AF786025
:1007A00007E07B681B781846FFF7D6FF7B680133AC
:1007B0007B607B681B78002BF3D100BF00BF08373C
:1007C000BD4680BD80B584B000AF03460A46FB71CC
:1007D0001346BB71BB79013B032B1BD801A252F816
:1007E00023F000BFF5070008FD0700080508000812
:1007F0000D080008FB79013BFB730FE0FB793F33E9
:10080000FB730BE0FB791333FB7307E0FB79533386
:10081000FB7303E0FB79013BFB7300BFFB7B63F0E1
:100820007F03DBB21846FFF76DFF00BF1037BD46F0
:1008300080BD00BF80B500AF00F0D0FAFFF7B6FE74
:1008400000F034F800F0ECF800F096F8114801F0F0
:1008500001FB0120FFF756FF01210120FFF7B2FF46
:100860000D48FFF799FF0D4B1B78DBB21A460C4978
:100870000C4801F017FF02210120FFF7A3FF0948F0
:10088000FFF78AFF034B1B685B6ADAB2064B1A70EC
:10089000E9E700BF8C000020982F0008E800002046
:1008A000A42F0008D8000020D400002080B594B008
:1008B00000AF07F1200330220021184601F0EAFEC4
:1008C00007F10C0300221A605A609A60DA601A611C
:1008D0000023BB60264B1B6C254A43F080531364F6
:1008E000234B1B6C03F08053BB60BB6800237B6011
:1008F000204B1B6823F440431E4A43F4004313601B
:100900001C4B1B6803F440437B607B6802233B6203
:100910000123FB6210233B630023BB6307F1200329
:10092000184600F0BBFD0346002B01D000F032F961
:100930000F23FB6000233B6180237B610023BB61AD
:100940000023FB6107F10C030021184601F01EF89B
:100950000346002B01D000F01DF94FF0E0620021AA
:10096000002001F0F9F800BF5037BD4680BD00BF40
:10097000003802400070004080B586B000AF07F13B
:10098000080300221A605A609A60DA603B4600222F
:100990001A605A60204B214A1A601F4B40F2E7321E
:1009A0005A601D4B00229A601B4B40F69F72DA6022
:1009B000194B00221A61184B00229A61164801F067
:1009C000F9F90346002B01D000F0E4F84FF400538E
:1009D000BB600023FB6000233B6100237B6107F1C8
:1009E000080319460C4801F09FFB0346002B01D079
:1009F00000F0D0F800233B6000237B603B461946A3
:100A0000054801F09BFD0346002B01D000F0C2F821
:100A100000BF1837BD4680BD8C0000200004004098
:100A200080B58AB000AF07F1140300221A605A6043
:100A30009A60DA601A6100233B61434B1B6B424AA8
:100A400043F004031363404B1B6B03F004033B614F
:100A50003B690023FB603C4B1B6B3B4A43F00103AB
:100A60001363394B1B6B03F00103FB60FB6800232E
:100A7000BB60354B1B6B344A43F002031363324BAC
:100A80001B6B03F00203BB60BB6800237B602E4B33
:100A90001B6B2D4A43F0080313632B4B1B6B03F0B6
:100AA00008037B607B6800228321284800F0C2FC99
:100AB00000224FF40C71264800F0BCFC00220121FA
:100AC000244800F0B7FC83237B610123BB61002332
:100AD000FB6100233B6207F1140319461B4800F039
:100AE00025FB4FF40C737B610123BB610023FB6189
:100AF00000233B6207F114031946154800F016FB6A
:100B000001237B610123BB610023FB6100233B6266
:100B100007F1140319460F4800F008FB4FF48073E7
:100B20007B610223BB610023FB6100233B62002346
:100B30007B6207F114031946054800F0F7FA00BF7D
:100B40002837BD4680BD00BF003802400008024083
:100B5000000002400004024080B582B000AF78601F
:100B60007B68094A93420AD12021084800F07BFCA7
:100B7000074B1B78DBB20133DAB2054B1A7000BFAA
:100B80000837BD4680BD00BF8C0000200000024039
:100B9000E800002080B400AF72B600BFFEE700009E
:100BA00080B483B000AF00237B60104B5B6C0F4AB6
:100BB00043F4804353640D4B5B6C03F480437B60D0
:100BC0007B6800233B60094B1B6C084A43F0805351
:100BD0001364064B1B6C03F080533B603B6800BF03
:100BE0000C37BD465DF8047B704700BF00380240FB
:100BF00080B58AB000AF786007F1140300221A6054
:100C00005A609A60DA601A617B681B681D4A9342D9
:100C100033D100233B611C4B1B6C1B4A43F0020386
:100C20001364194B1B6C03F002033B613B69002307
:100C3000FB60154B1B6B144A43F008031363124B04
:100C40001B6B03F00803FB60FB6804237B6102233A
:100C5000BB610023FB6100233B6202237B6207F13F
:100C600014031946094800F061FA002200211D20F2
:100C700000F025FA1D2000F03EFA00BF2837BD46DF
:100C800080BD00BF0004004000380240000C02405C
:100C900080B400AFFEE780B400AFFEE780B400AFE1
:100CA000FEE780B400AFFEE780B400AFFEE780B49B
:100CB00000AF00BFBD465DF8047B704780B400AF55
:100CC00000BFBD465DF8047B704780B400AF00BF35
:100CD000BD465DF8047B704780B500AF00F0D0F8EA
:100CE00000BF80BD80B500AF024801F015F900BF1C
:100CF00080BD00BF8C00002080B586B000AF78605A
:100D0000144A154BD31A7B617B693B61134B1B68FB
:100D1000002B02D1114B124A1A60104B1A687B68E3
:100D200013443A699A4207D201F08AFC03460C2226
:100D30001A604FF0FF3309E0084B1B68FB60074B5C
:100D40001A687B681344054A1360FB681846183715
:100D5000BD4680BD0080012000040000EC000020A2
:100D60000801002080B400AF064BD3F88830054A54
:100D700043F47003C2F8883000BFBD465DF8047BC1
:100D8000704700BF00ED00E0DFF834D00D480E4999
:100D90000E4A002302E0D458C4500433C4188C42D5
:100DA000F9D30B4A0B4C002301E013600432A2423A
:100DB000FBD3FFF7D7FF01F049FCFFF73BFD70477E
:100DC0000080012000000020700000200430000896
:100DD0007000002004010020FEE7000080B500AF95
:100DE0000E4B1B680D4A43F4007313600B4B1B68DA
:100DF0000A4A43F480631360084B1B68074A43F4B4
:100E000080731360032000F04FF90F2000F008F802
:100E1000FFF7C6FE0023184680BD00BF003C02401D
:100E200080B582B000AF7860124B1A68124B1B7805
:100E300019464FF47A73B3FBF1F3B2FBF3F31846A0
:100E400000F067F90346002B01D001230EE07B6818
:100E50000F2B0AD8002279684FF0FF3000F02FF9ED
:100E6000064A7B681360002300E001231846083718
:100E7000BD4680BD000000200800002004000020C6
:100E800080B400AF064B1B781A46064B1B68134410
:100E9000044A136000BFBD465DF8047B704700BF85
:100EA00008000020F000002080B400AF034B1B6856
:100EB0001846BD465DF8047B704700BFF000002077
:100EC00080B584B000AF7860FFF7EEFFB8607B6854
:100ED000FB60FB68B3F1FF3F05D00A4B1B781A4655
:100EE000FB681344FB6000BFFFF7DEFF0246BB68F0
:100EF000D31AFA689A42F7D800BF00BF1037BD4630
:100F000080BD00BF0800002080B485B000AF7860CD
:100F10007B6803F00703FB600C4BDB68BB60BA68BF
:100F20004FF6FF031340BB60FB681A02BB68134314
:100F300043F0BF6343F40033BB60044ABB68D36033
:100F400000BF1437BD465DF8047B704700ED00E03C
:100F500080B400AF044BDB681B0A03F0070318469C
:100F6000BD465DF8047B704700ED00E080B483B0BF
:100F700000AF0346FB7197F90730002B0BDBFB79C1
:100F800003F01F02074997F907305B09012000FAB7
:100F900002F241F8232000BF0C37BD465DF8047B08
:100FA000704700BF00E100E080B483B000AF0346AB
:100FB0003960FB7197F90730002B0ADB3B68DAB226
:100FC0000C4997F907301201D2B20B4483F8002381
:100FD0000AE03B68DAB20849FB7903F00F03043BEF
:100FE0001201D2B20B441A7600BF0C37BD465DF831
:100FF000047B704700E100E000ED00E080B489B0C0
:1010000000AFF860B9607A60FB6803F00703FB612A
:10101000FB69C3F10703042B28BF0423BB61FB69F1
:101020000433062B02D9FB69033B00E000237B61FC
:101030004FF0FF32BB6902FA03F3DA43BB681A4090
:101040007B699A404FF0FF317B6901FA03F3D94382
:101050007B680B40134318462437BD465DF8047B7C
:101060007047000080B582B000AF78607B68013BBC
:10107000B3F1807F01D301230FE00A4A7B68013B73
:1010800053600F214FF0FF30FFF78EFF054B00221A
:101090009A60044B07221A60002318460837BD46A1
:1010A00080BD00BF10E000E080B582B000AF786086
:1010B0007868FFF729FF00BF0837BD4680BD80B5BF
:1010C00086B000AF0346B9607A60FB7300237B6192
:1010D000FFF73EFF78617A68B9687869FFF78EFF9D
:1010E000024697F90F3011461846FFF75DFF00BF23
:1010F0001837BD4680BD80B582B000AF0346FB7196
:1011000097F907301846FFF731FF00BF0837BD4693
:1011100080BD80B582B000AF78607868FFF7A2FF2D
:10112000034618460837BD4680BD000080B489B02C
:1011300000AF7860396000237B6100233B610023AE
:10114000BB610023FB6159E10122FB6902FA03F351
:101150007B613B681B687A6913403B613A697B6934
:101160009A4240F048813B685B6803F00303012B1F
:1011700005D03B685B6803F00303022B30D17B682A
:101180009B68BB61FB695B00032202FA03F3DB434C
:10119000BA691340BB613B68DA68FB695B0002FA1D
:1011A00003F3BA691343BB617B68BA699A607B68D1
:1011B0005B68BB610122FB6902FA03F3DB43BA6996
:1011C0001340BB613B685B681B0903F00102FB69CC
:1011D00002FA03F3BA691343BB617B68BA695A60C8
:1011E0003B685B6803F00303032B17D07B68DB6865
:1011F000BB61FB695B00032202FA03F3DB43BA69BC
:101200001340BB613B689A68FB695B0002FA03F319
:10121000BA691343BB617B68BA69DA603B685B6893
:1012200003F00303022B23D1FB69DA087B68083241
:1012300053F82230BB61FB6903F007039B000F22C8
:1012400002FA03F3DB43BA691340BB613B681A69D6
:10125000FB6903F007039B0002FA03F3BA69134327
:10126000BB61FB69DA087B680832B96943F8221070
:101270007B681B68BB61FB695B00032202FA03F316
:10128000DB43BA691340BB613B685B6803F0030250
:10129000FB695B0002FA03F3BA691343BB617B6825
:1012A000BA691A603B685B6803F44033002B00F0B6
:1012B000A2800023FB60574B5B6C564A43F480438B
:1012C0005364544B5B6C03F48043FB60FB68524AED
:1012D000FB699B08023352F82330BB61FB6903F0C2
:1012E00003039B000F2202FA03F3DB43BA691340A6
:1012F000BB617B68494A934219D07B68484A934254
:1013000013D07B68474A93420DD07B68464A93428C
:1013100007D07B68454A934201D1042308E00723A4
:1013200006E0032304E0022302E0012300E000239F
:10133000FA6902F0030292009340BA691343BB6159
:101340003549FB699B080233BA6941F82320384BC1
:101350009B68BB613B69DB43BA691340BB613B6877
:101360005B6803F48013002B03D0BA693B69134315
:10137000BB612F4ABB6993602D4BDB68BB613B6946
:10138000DB43BA691340BB613B685B6803F400133D
:10139000002B03D0BA693B691343BB61244ABB6984
:1013A000D360234B5B68BB613B69DB43BA69134085
:1013B000BB613B685B6803F40033002B03D0BA6960
:1013C0003B691343BB611A4ABB695360184B1B68E6
:1013D000BB613B69DB43BA691340BB613B685B6837
:1013E00003F48033002B03D0BA693B691343BB611C
:1013F0000F4ABB691360FB690133FB61FB690F2B6B
:101400007FF6A2AE00BF00BF2437BD465DF8047B67
:10141000704700BF00380240003801400000024021
:101420000004024000080240000C0240001002408C
:10143000003C014080B483B000AF78600B467B80F5
:1014400013467B707B78002B03D07A887B689A6187
:1014500003E07B881A047B689A6100BF0C37BD46A5
:101460005DF8047B704780B485B000AF78600B46B0
:101470007B807B685B69FB607A88FB6813401A0499
:10148000FB68D9437B880B401A437B689A6100BF95
:101490001437BD465DF8047B7047000080B586B008
:1014A00000AF78607B68002B01D1012367E27B6885
:1014B0001B6803F00103002B75D0884B9B6803F079
:1014C0000C03042B0CD0854B9B6803F00C03082BFA
:1014D00012D1824B5B6803F48003B3F5800F0BD10C
:1014E0007E4B1B6803F40033002B5BD07B685B688A
:1014F000002B57D1012342E27B685B68B3F5803F44
:1015000006D1764B1B68754A43F4803313601DE0A7
:101510007B685B68B3F5A02F0CD1704B1B686F4ADA
:1015200043F4802313606D4B1B686C4A43F4803393
:1015300013600BE0694B1B68684A23F48033136027
:10154000664B1B68654A23F4802313607B685B68E5
:10155000002B13D0FFF7A8FC386108E0FFF7A4FCCC
:1015600002463B69D31A642B01D9032307E25B4B84
:101570001B6803F40033002BF0D014E0FFF794FC59
:10158000386108E0FFF790FC02463B69D31A642BF0
:1015900001D90323F3E1514B1B6803F40033002B03
:1015A000F0D100E000BF7B681B6803F00203002B52
:1015B00063D04A4B9B6803F00C03002B0BD0474BC6
:1015C0009B6803F00C03082B1CD1444B5B6803F4AD
:1015D0008003002B16D1414B1B6803F00203002B44
:1015E00005D07B68DB68012B01D00123C7E13B4BB1
:1015F0001B6823F0F8027B681B69DB003749134343
:101600000B603AE07B68DB68002B20D0344B012272
:101610001A60FFF749FC386108E0FFF745FC024615
:101620003B69D31A022B01D90323A8E12B4B1B687A
:1016300003F00203002BF0D0284B1B6823F0F802C4
:101640007B681B69DB00254913430B6015E0244BC5
:1016500000221A60FFF728FC386108E0FFF724FC3D
:1016600002463B69D31A022B01D9032387E11B4BA6
:101670001B6803F00203002BF0D17B681B6803F0AA
:101680000803002B36D07B685B69002B16D0154B06
:1016900001221A60FFF708FC386108E0FFF704FC3C
:1016A00002463B69D31A022B01D9032367E10B4B96
:1016B0005B6F03F00203002BF0D01BE0094B00220C
:1016C0001A60FFF7F1FB38610EE0FFF7EDFB024611
:1016D0003B69D31A022B07D9032350E1003802409B
:1016E00000004742800E4742884B5B6F03F00203C5
:1016F000002BEAD17B681B6803F00403002B00F089
:1017000097800023FB75814B1B6C03F08053002BEB
:101710000FD10023BB607D4B1B6C7C4A43F0805390
:1017200013647A4B1B6C03F08053BB60BB680123CE
:10173000FB75774B1B6803F48073002B18D1744B37
:101740001B68734A43F480731360FFF7ADFB386185
:1017500008E0FFF7A9FB02463B69D31A022B01D927
:1017600003230CE16A4B1B6803F48073002BF0D059
:101770007B689B68012B06D1644B1B6F634A43F067
:10178000010313671CE07B689B68052B0CD15F4B42
:101790001B6F5E4A43F0040313675C4B1B6F5B4A8D
:1017A00043F0010313670BE0584B1B6F574A23F0BC
:1017B00001031367554B1B6F544A23F0040313674F
:1017C0007B689B68002B15D0FFF76EFB38610AE041
:1017D000FFF76AFB02463B69D31A41F28832934213
:1017E00001D90323CBE0494B1B6F03F00203002B0D
:1017F000EED014E0FFF758FB38610AE0FFF754FB26
:1018000002463B69D31A41F28832934201D903233D
:10181000B5E03E4B1B6F03F00203002BEED1FB7DC6
:10182000012B05D1394B1B6C384A23F080531364CC
:101830007B689B69002B00F0A180344B9B6803F010
:101840000C03082B5CD07B689B69022B41D1314B88
:1018500000221A60FFF728FB386108E0FFF724FB3D
:1018600002463B69D31A022B01D9032387E0274B99
:101870001B6803F00073002BF0D17B68DA697B688A
:101880001B6A1A437B685B6A9B011A437B689B6AED
:101890005B08013B1B041A437B68DB6A1B061B4980
:1018A00013434B601B4B01221A60FFF7FDFA3861AE
:1018B00008E0FFF7F9FA02463B69D31A022B01D977
:1018C00003235CE0114B1B6803F00073002BF0D086
:1018D00054E0104B00221A60FFF7E6FA386108E086
:1018E000FFF7E2FA02463B69D31A022B01D9032320
:1018F00045E0064B1B6803F00073002BF0D13DE080
:101900007B689B69012B07D1012338E00038024036
:1019100000700040600047421B4B5B68FB607B68C7
:101920009B69012B28D0FB6803F480027B68DB698C
:101930009A4221D1FB6803F03F027B681B6A9A42FE
:101940001AD1FA6847F6C07313407A68526A920156
:10195000934211D1FB6803F440327B689B6A5B08B9
:10196000013B1B049A4207D1FB6803F070627B685D
:10197000DB6A1B069A4201D0012300E000231846CF
:101980001837BD4680BD00BF0038024080B584B026
:1019900000AF786039607B68002B01D10123CCE077
:1019A000684B1B6803F007033A689A420CD9654BF1
:1019B0003A68D2B21A70634B1B6803F007033A68A7
:1019C0009A4201D00123B8E07B681B6803F0020350
:1019D000002B20D07B681B6803F00403002B05D08C
:1019E000594B9B68584A43F4E05393607B681B68EB
:1019F00003F00803002B05D0534B9B68524A43F475
:101A000060439360504B9B6823F0F0027B689B68B7
:101A10004D4913438B607B681B6803F00103002B67
:101A200044D07B685B68012B07D1474B1B6803F4EC
:101A30000033002B19D101237FE07B685B68022B08
:101A400003D07B685B68032B07D13F4B1B6803F017
:101A50000073002B09D101236FE03B4B1B6803F09F
:101A60000203002B01D1012367E0374B9B6823F071
:101A700003027B685B68344913438B60FFF714FAF9
:101A8000F8600AE0FFF710FA0246FB68D31A41F249
:101A90008832934201D903234FE02B4B9B6803F01C
:101AA0000C027B685B689B009A42EBD1254B1B685C
:101AB00003F007033A689A420CD2224B3A68D2B23A
:101AC0001A70204B1B6803F007033A689A4201D052
:101AD000012332E07B681B6803F00403002B08D06D
:101AE000194B9B6823F4E0527B68DB68164913436B
:101AF0008B607B681B6803F00803002B09D0124B36
:101B00009B6823F460427B681B69DB000E4913432A
:101B10008B6000F089F802460B4B9B681B0903F0B1
:101B20000F030A49CB5C22FA03F3094A1360094BFD
:101B30001B681846FFF774F9002318461037BD4696
:101B400080BD00BF003C024000380240B02F0008BA
:101B5000000000200400002080B58CB000AFF860C9
:101B6000B9607A60FB68002B29D10023BB612B4B45
:101B70001B6B2A4A43F001031363284B1B6B03F0D2
:101B80000103BB61BB694FF48073FB6102233B62BD
:101B90000323BB6200237B620023FB6207F11C036B
:101BA00019461F48FFF7C2FA1C4B9B6823F0EC62F2
:101BB000B9687B680B43194913438B6029E0002304
:101BC0007B61164B1B6B154A43F004031363134BE5
:101BD0001B6B03F004037B617B694FF40073FB61B3
:101BE00002233B620323BB6200237B620023FB6270
:101BF00007F11C0319460B48FFF798FA074B9B683F
:101C000023F078427B68D900BB680B430349134338
:101C10008B6000BF3037BD4680BD00BF003802403A
:101C200000000240000802402DE9B04F90B000AF24
:101C300000237B630023FB6300233B630023BB6320
:101C4000594B9B6803F00C03082B0DD0082B00F2B6
:101C5000A180002B02D0042B03D09BE0534BBB632D
:101C60009BE0534BBB6398E04F4B5B6803F03F0333
:101C70007B634D4B5B6803F48003002B28D04A4BF9
:101C80005B689B0900223B627A623B6AC3F30800EF
:101C90000021474B03FB01F2002300FB03F3134435
:101CA000434AA0FB0212FA620A46BA62FA6A134475
:101CB000FB627B6B0022BB61FA61D7E90623D7E99F
:101CC0000A01FEF7DDFA02460B461346FB6353E0BA
:101CD000354B5B689B0900223B617A613B69C3F32A
:101CE000080A4FF0000B52465B464FF000004FF0E1
:101CF0000001590141EAD261500102460B46B2EBA4
:101D00000A0863EB0B094FF000024FF000034FEAA3
:101D1000891343EA98634FEA8812B2EB080463EB35
:101D200009054FF000024FF00003EB0043EA547343
:101D3000E20014461D4614EB0A033B6045EB0B031F
:101D40007B604FF000024FF00003D7E900452946C1
:101D50008B02214643EA915321468A0210461946D6
:101D60007B6B0022BB60FA60D7E90223FEF788FA9A
:101D700002460B461346FB630B4B5B681B0C03F0E0
:101D8000030301335B003B63FA6B3B6BB2FBF3F382
:101D9000BB6302E0054BBB6300BFBB6B184640371B
:101DA000BD46BDE8B08F00BF003802400024F400FB
:101DB00040787D0180B582B000AF78607B68002BF1
:101DC00001D1012341E07B6893F83D30DBB2002B69
:101DD00006D17B68002283F83C207868FEF708FF74
:101DE0007B68022283F83D207B681A687B68043395
:101DF0001946104600F088FA7B68012283F84620D5
:101E00007B68012283F83E207B68012283F83F2013
:101E10007B68012283F840207B68012283F84120FF
:101E20007B68012283F842207B68012283F84320EB
:101E30007B68012283F844207B68012283F84520D7
:101E40007B68012283F83D20002318460837BD46F1
:101E500080BD000080B485B000AF78607B6893F8E7
:101E60003D30DBB2012B01D0012344E07B6802222C
:101E700083F83D207B681B68DA687B681B6842F04A
:101E80000102DA607B681B681E4A934218D07B68A7
:101E90001B68B3F1804F13D07B681B681A4A9342CA
:101EA0000ED07B681B68194A934209D07B681B6877
:101EB000174A934204D07B681B68164A934211D19B
:101EC0007B681B689B6803F00703FB60FB68062BBD
:101ED00010D07B681B681A687B681B6842F001029F
:101EE0001A6007E07B681B681A687B681B6842F011
:101EF00001021A60002318461437BD465DF8047BC2
:101F0000704700BF0000014000040040000800408E
:101F1000000C00400040014080B582B000AF786006
:101F20007B681B681B6903F00203022B22D17B68CC
:101F30001B68DB6803F00203022B1BD17B681B6864
:101F40006FF002021A617B6801221A777B681B68B6
:101F50009B6903F00303002B03D0786800F0B5F908
:101F600005E0786800F0A7F9786800F0B8F97B68B8
:101F700000221A777B681B681B6903F00403042B9B
:101F800022D17B681B68DB6803F00403042B1BD1A0
:101F90007B681B686FF004021A617B6802221A7763
:101FA0007B681B689B6903F44073002B03D078683F
:101FB00000F08BF905E0786800F07DF9786800F0B2
:101FC0008EF97B6800221A777B681B681B6903F017
:101FD0000803082B22D17B681B68DB6803F0080329
:101FE000082B1BD17B681B686FF008021A617B68A5
:101FF00004221A777B681B68DB6903F00303002B5C
:1020000003D0786800F061F905E0786800F053F9D2
:10201000786800F064F97B6800221A777B681B6897
:102020001B6903F01003102B22D17B681B68DB684F
:1020300003F01003102B1BD17B681B686FF010029C
:102040001A617B6808221A777B681B68DB6903F4D6
:102050004073002B03D0786800F037F905E078680A
:1020600000F029F9786800F03AF97B6800221A77C5
:102070007B681B681B6903F00103012B0ED17B6891
:102080001B68DB6803F00103012B07D17B681B6829
:102090006FF001021A617868FEF75EFD7B681B68CD
:1020A0001B6903F08003802B0ED17B681B68DB6803
:1020B00003F08003802B07D17B681B686FF08002E0
:1020C0001A61786800F0B2FA7B681B681B6903F03C
:1020D0004003402B0ED17B681B68DB6803F0400394
:1020E000402B07D17B681B686FF040021A6178684B
:1020F00000F0FFF87B681B681B6903F02003202BAE
:102100000ED17B681B68DB6803F02003202B07D10E
:102110007B681B686FF020021A61786800F07CFA17
:1021200000BF0837BD4680BD80B584B000AF786081
:1021300039600023FB737B6893F83C30012B01D19D
:102140000223B4E07B68012283F83C207B680222F2
:1021500083F83D207B681B689B68BB60BB6823F0ED
:102160007703BB60BB6823F47F43BB607B681B685D
:10217000BA689A603B681B68B3F5005F3ED0B3F560
:10218000005F00F28780B3F5805F00F08680B3F5D2
:10219000805F7FD8702B1AD0702B7BD8602B50D0EB
:1021A000602B77D8502B3CD0502B73D8402B58D075
:1021B000402B6FD8302B64D0302B6BD8202B60D0C5
:1021C000202B67D8002B5CD0102B5AD062E07B68A4
:1021D00018683B6899683B685A683B68DB6800F0A0
:1021E0008DF97B681B689B68BB60BB6843F0770315
:1021F000BB607B681B68BA689A604FE07B681868B0
:102200003B6899683B685A683B68DB6800F076F980
:102210007B681B689A687B681B6842F480429A60FE
:102220003CE07B6818683B6859683B68DB681A4685
:1022300000F0EAF87B681B685021184600F043F96B
:102240002CE07B6818683B6859683B68DB681A4675
:1022500000F009F97B681B686021184600F033F92B
:102260001CE07B6818683B6859683B68DB681A4665
:1022700000F0CAF87B681B684021184600F023F97B
:102280000CE07B681A683B681B681946104600F032
:102290001AF903E00123FB7300E000BF7B68012211
:1022A00083F83D207B68002283F83C20FB7B1846A6
:1022B0001037BD4680BD80B483B000AF786000BFEA
:1022C0000C37BD465DF8047B704780B483B000AF27
:1022D000786000BF0C37BD465DF8047B704780B462
:1022E00083B000AF786000BF0C37BD465DF8047B5B
:1022F000704780B483B000AF786000BF0C37BD4634
:102300005DF8047B7047000080B485B000AF786052
:1023100039607B681B68FB607B68344A93420FD04E
:102320007B68B3F1804F0BD07B68314A934207D072
:102330007B68304A934203D07B682F4A934208D18E
:10234000FB6823F07003FB603B685B68FA6813432B
:10235000FB607B68254A93421BD07B68B3F1804FBA
:1023600017D07B68224A934213D07B68214A93425C
:102370000FD07B68204A93420BD07B681F4A934260
:1023800007D07B681E4A934203D07B681D4A934264
:1023900008D1FB6823F44073FB603B68DB68FA6894
:1023A0001343FB60FB6823F080023B685B691343C7
:1023B000FB607B68FA681A603B689A687B68DA623F
:1023C0003B681A687B689A627B68084A934203D12B
:1023D0003B681A697B681A637B6801225A6100BFF7
:1023E0001437BD465DF8047B704700BF0000014014
:1023F0000004004000080040000C00400040014084
:10240000004401400048014080B487B000AFF8604C
:10241000B9607A60FB681B6A7B61FB681B6A23F00A
:102420000102FB681A62FB689B693B613B6923F010
:10243000F0033B617B681B013A6913433B617B6995
:1024400023F00A037B617A69BB6813437B61FB68F5
:102450003A699A61FB687A691A6200BF1C37BD4607
:102460005DF8047B704780B487B000AFF860B96056
:102470007A60FB681B6A23F01002FB681A62FB6833
:102480009B697B61FB681B6A3B617B6923F470433A
:102490007B617B681B037A6913437B613B6923F093
:1024A000A0033B61BB681B013A6913433B61FB68B6
:1024B0007A699A61FB683A691A6200BF1C37BD46A7
:1024C0005DF8047B704780B485B000AF78603960F8
:1024D0007B689B68FB60FB6823F07003FB603A68D5
:1024E000FB68134343F00703FB607B68FA689A605C
:1024F00000BF1437BD465DF8047B704780B487B0D9
:1025000000AFF860B9607A603B60FB689B687B61F4
:102510007B6923F47F437B613B681A027B681A4323
:10252000BB6813437A6913437B61FB687A699A60DD
:1025300000BF1C37BD465DF8047B704780B485B092
:1025400000AF786039607B6893F83C30012B01D193
:10255000022350E07B68012283F83C207B68022242
:1025600083F83D207B681B685B68FB607B681B68A9
:102570009B68BB60FB6823F07003FB603B681B68D3
:10258000FA681343FB607B681B68FA685A607B68D3
:102590001B681C4A934218D07B681B68B3F1804FBC
:1025A00013D07B681B68184A93420ED07B681B6867
:1025B000164A934209D07B681B68154A934204D09F
:1025C0007B681B68134A93420CD1BB6823F08003DD
:1025D000BB603B685B68BA681343BB607B681B6881
:1025E000BA689A607B68012283F83D207B680022EC
:1025F00083F83C20002318461437BD465DF8047B61
:10260000704700BF00000140000400400008004087
:10261000000C00400040014080B483B000AF7860FF
:1026200000BF0C37BD465DF8047B704780B483B0B3
:1026300000AF786000BF0C37BD465DF8047B704783
:10264000014B1868704700BF0C00002070B50D4D9D
:102650000D4C641BA4100026A64209D10B4D0C4C56
:1026600000F08EFC641BA4100026A64205D170BDAC
:1026700055F8043B98470136EEE755F8043B984778
:102680000136F2E7FC2F0008FC2F0008FC2F0008A1
:102690000030000802440346934200D1704703F81B
:1026A000011BF9E70EB400B59CB01DAB029006907B
:1026B0006FF00041094807910491094953F8042B30
:1026C00005910068019302A900F068F8029B0022BE
:1026D0001A701CB05DF804EB03B070470C000020CA
:1026E0000802FFFF2DE9F0478E689E4282460C46A5
:1026F00090461F4638D88A8912F4906F32D02568E8
:102700000969A5EB0109656905EB450505EBD5757B
:1027100001334B446D109D4238BF1D46530531D5E2
:10272000294600F063FB064650B90C23CAF8003076
:10273000A38943F04003A3814FF0FF30BDE8F08749
:1027400021694A4600F0BEFAA38923F4906343F05E
:102750008003A381266165614E44A5EB09052660CF
:10276000A5603E46BE4200D93E46206832464146FC
:1027700000F0B6FAA3689B1BA36023683344236070
:102780000020DBE72A4600F0A5FB06460028E1D141
:102790002169504600F0BEFAC7E700002DE9F04F6E
:1027A00098468B891B069DB007460D4614460ED5EC
:1027B0000B6963B9402100F019FB2860286120B93A
:1027C0000C233B604FF0FF30D1E040236B610023CE
:1027D000099320238DF82930CDF80C803023DFF8C1
:1027E000A8818DF82A304FF0010923469A4613F844
:1027F000012B0AB1252AF9D1BAEB040B0BD05B46A9
:10280000224629463846FFF76DFF013000F0AA80C6
:10281000099A5A4409929AF80030002B00F0A280DD
:1028200000234FF0FF32CDE905230AF1010A04939A
:1028300007938DF853301A935446052214F8011B60
:102840005148FDF7CDFC049AD8B9D00644BF2023E7
:102850008DF85330110744BF2B238DF853309AF86D
:1028600000302A2B15D0079A544600204FF00A0C4E
:10287000214611F8013B303B092B4ED9B0B10792EC
:1028800014E0A0EB080309FA03F313430493A246F0
:10289000D2E7039B191D1B680391002BBBBF5B4252
:1028A00042F0020207930793B8BF049223782E2BBD
:1028B0000CD163782A2B35D1039B1A1D1B68039218
:1028C000002BB8BF4FF0FF3302340593DFF8C8A0E8
:1028D000217803225046FDF783FC40B14023A0EB52
:1028E0000A0003FA00F0049B03430134049314F834
:1028F000011B26488DF828100622FDF771FC0028E0
:1029000038D0234B1BBB039B073323F0070308334B
:102910000393099B3344099367E70CFB02320C468F
:102920000120A5E700230134059319464FF00A0C56
:10293000204610F8012B303A092A03D9002BC5D0C4
:102940000591C3E70CFB012104460123F0E703AB2B
:1029500000932A460F4B04A93846AFF30080421C6F
:102960000646D6D1AB895B063FF52CAF09981DB062
:10297000BDE8F08F03AB00932A46064B04A9384606
:1029800000F07AF8EBE700BFC02F0008CA2F00085C
:1029900000000000E5260008C62F00082DE9F047DA
:1029A000164699468A680B69DDF820809342B8BFC5
:1029B0001346336091F8432007460C460AB10133B1
:1029C00033602368990642BF336802333360256859
:1029D00015F0060506D104F1190AE36832689B1A5E
:1029E000AB4226DC94F84320131E226818BF012353
:1029F00092062BD404F1430249463846C0470130C1
:102A00001ED02368E568326803F00603042B08BF74
:102A1000AD1AA36822690CBF25EAE575002593422B
:102A2000C4BF9B1AED1800261A34B5421AD10020F3
:102A300008E00123524649463846C047013003D1D9
:102A40004FF0FF30BDE8F0870135C6E7E1185A1CAA
:102A5000302081F84300224494F8451082F8431056
:102A60000233C7E70123224649463846C0470130B2
:102A7000E6D00136D9E700002DE9FF470F7E0C9D17
:102A8000782F914680460C469A4601F1430207D8BA
:102A9000622F0AD8002F00F0D880582F00F0A380B2
:102AA00004F1420584F842703AE0A7F16303152B64
:102AB000F6D801A151F823F0112B0008252B0008AE
:102AC000A12A0008A12A0008A12A0008A12A0008BA
:102AD000252B0008A12A0008A12A0008A12A000825
:102AE000A12A0008312C0008552B0008132C0008DF
:102AF000A12A0008A12A0008532C0008A12A0008D6
:102B0000552B0008A12A0008A12A00081B2C000848
:102B10002B681A1D1B682A6004F1420584F84230B4
:102B20000123A3E020682968060601F104030AD501
:102B30000E682B60002E03DA2D23764284F8433092
:102B40005E480A2319E00E682B6010F0400F18BF92
:102B500036B2EFE72B682068191D2960010601D500
:102B60001E6802E04606FBD51E8854486F2F0CBF36
:102B700008230A23002184F843106568A560002D0E
:102B8000A2BF216821F0040121600EB9002D4DD0B3
:102B90001546B6FBF3F103FB1167C75D05F8017D30
:102BA0003746BB420E46F4D9082B0BD12368DE070B
:102BB00008D5236961689942DEBF302305F8013CDE
:102BC00005F1FF35521B2261CDF800A04B4603AA48
:102BD00021464046FFF7E2FE01304CD14FF0FF3076
:102BE00004B0BDE8F087354881F84570296823684E
:102BF00051F8046B29601D0614D5DF0744BF43F06C
:102C0000200323601EB9236823F0200323601023D0
:102C1000B0E7236843F0200323607823284884F832
:102C20004530E3E7590648BFB6B2E6E71546BBE7CD
:102C30002B6826686169181D286035061B6801D558
:102C4000196002E07006FBD5198000232361154648
:102C5000BAE72B681A1D2A601D68626800212846A1
:102C6000FDF7BEFA08B1401B606063682361002372
:102C700084F84330A8E723692A4649464046D047AE
:102C80000130ABD023689B0713D4E068039B9842C4
:102C9000B8BF1846A4E70123324649464046D0470C
:102CA00001309BD00135E36803995B1AAB42F2DC3B
:102CB000EBE7002504F11906F5E700BFD12F000866
:102CC000E22F00080A44914200F1FF3300D170471F
:102CD00010B511F8014B03F8014F9142F9D110BD25
:102CE000884210B501EB020402D98442234607D87A
:102CF000431EA14208D011F8012B03F8012FF8E779
:102D0000024401468A4200D110BD13F8014D02F879
:102D1000014DF7E737B5002944D051F8043C019044
:102D2000002BA1F10404B8BFE41800F013F91E4A07
:102D30000198136833B96360146003B0BDE8304094
:102D400000F00EB9A34208D9256861198B4201BF72
:102D500019685B6849192160EDE71A465B680BB199
:102D6000A342FAD911685518A5420BD12468214411
:102D70005418A3421160E0D11C685B685360214481
:102D80001160DAE702D90C230360D6E725686119E0
:102D90008B4204BF19685B68636004BF49192160F6
:102DA0005460CAE703B030BDF400002070B50E4E89
:102DB0000C463168054611B900F0BCF83060214678
:102DC000284600F0B7F8431C0AD0C41C24F00304C2
:102DD000A04207D0211A284600F0ACF8013001D1FA
:102DE0004FF0FF34204670BDF80000202DE9F0417F
:102DF000CD1C25F0030508350C2D38BF0C25002D02
:102E0000074601DBA94205D90C233B60002630466A
:102E1000BDE8F0812E4E00F09DF833681C4634BBAF
:102E200029463846FFF7C2FF431C04464DD134689B
:102E30002646002E40D123683146384604EB03086D
:102E400000F078F880453AD1216803356D1A25F0F5
:102E5000030508350C2D38BF0C2529463846FFF7E9
:102E6000A5FF01302BD023682B4423600EE022689D
:102E7000521B1ED40B2A16D96119A342256018BF14
:102E80005960636808BF316062514B60384604F195
:102E90000B0600F065F826F00706231DF21AB6D0DF
:102EA0009B1BA350B3E76268A3420CBF32605A6019
:102EB000ECE723466468B2E734467668B9E70C234A
:102EC0003B60384600F04CF8A1E72560DEE700BF24
:102ED000F40000202DE9F041804614460E4621B949
:102EE000BDE8F0411146FFF781BF2AB9FFF712FF95
:102EF00025462846BDE8F08100F038F884420746B0
:102F000002D8B4EB500F12D821464046FFF76EFFAF
:102F100005460028EDD0BC422246314628BF3A463D
:102F2000FFF7D0FE31464046FFF7F4FEE1E73546B5
:102F3000DFE7000038B5064D0023044608462B6045
:102F4000FDF7DAFE431C02D12B6803B1236038BDC4
:102F5000FC000020014800F011B800BF0001002073
:102F6000014800F00CB800BF0001002051F8043CFB
:102F7000181F002BBCBF0B58C01870477047704714
:102F8000F8B500BFF8BC08BC9E467047F8B500BF56
:082F9000F8BC08BC9E46704726
:102F980053544D33322041524D000000434F4E549C
:102FA8003A20256400000000000000000000000036
:102FB8000102030406070809232D302B2000686C42
:102FC8004C00656667454647003031323334353644
:102FD800373839414243444546003031323334357D
:0C2FE800363738396162636465660000AA
:082FF400BCD2FF7F01000000C8
:042FFC00C501000803
:04300000A101000822
:103004000024F40010000000010000001000002063
:1030140000000000000000000000000000000000AC
:10302400000000000000000000000000000000009C
:10303400000000000000000000000000000000008C
:10304400000000000000000000000000000000007C
:10305400000000000000000000000000000000006C
:10306400000000000000000000000000000000005C
:0400000508000D8959
:00000001FF
